{
  "_format": "hh-sol-artifact-1",
  "contractName": "ERC20",
  "sourceName": "contracts/ERC20.sol",
  "abi": [
    {
      "anonymous": false,
      "inputs": [
        {
          "indexed": true,
          "internalType": "address",
          "name": "owner",
          "type": "address"
        },
        {
          "indexed": true,
          "internalType": "address",
          "name": "sender",
          "type": "address"
        },
        {
          "indexed": false,
          "internalType": "uint256",
          "name": "amount",
          "type": "uint256"
        }
      ],
      "name": "Approval",
      "type": "event"
    },
    {
      "anonymous": false,
      "inputs": [
        {
          "indexed": false,
          "internalType": "uint256",
          "name": "amount",
          "type": "uint256"
        }
      ],
      "name": "Log",
      "type": "event"
    },
    {
      "anonymous": false,
      "inputs": [
        {
          "indexed": true,
          "internalType": "address",
          "name": "user",
          "type": "address"
        },
        {
          "indexed": false,
          "internalType": "uint256",
          "name": "amount",
          "type": "uint256"
        },
        {
          "indexed": false,
          "internalType": "uint256",
          "name": "index",
          "type": "uint256"
        },
        {
          "indexed": false,
          "internalType": "uint256",
          "name": "timestamp",
          "type": "uint256"
        }
      ],
      "name": "Staked",
      "type": "event"
    },
    {
      "anonymous": false,
      "inputs": [
        {
          "indexed": true,
          "internalType": "address",
          "name": "from",
          "type": "address"
        },
        {
          "indexed": true,
          "internalType": "address",
          "name": "to",
          "type": "address"
        },
        {
          "indexed": false,
          "internalType": "uint256",
          "name": "amount",
          "type": "uint256"
        }
      ],
      "name": "Transfer",
      "type": "event"
    },
    {
      "inputs": [
        {
          "internalType": "address",
          "name": "",
          "type": "address"
        },
        {
          "internalType": "address",
          "name": "",
          "type": "address"
        }
      ],
      "name": "allowance",
      "outputs": [
        {
          "internalType": "uint256",
          "name": "",
          "type": "uint256"
        }
      ],
      "stateMutability": "view",
      "type": "function"
    },
    {
      "inputs": [],
      "name": "amountStaked",
      "outputs": [
        {
          "internalType": "uint256",
          "name": "",
          "type": "uint256"
        }
      ],
      "stateMutability": "view",
      "type": "function"
    },
    {
      "inputs": [
        {
          "internalType": "address",
          "name": "sender",
          "type": "address"
        },
        {
          "internalType": "uint256",
          "name": "amount",
          "type": "uint256"
        }
      ],
      "name": "approve",
      "outputs": [
        {
          "internalType": "bool",
          "name": "",
          "type": "bool"
        }
      ],
      "stateMutability": "nonpayable",
      "type": "function"
    },
    {
      "inputs": [
        {
          "internalType": "address",
          "name": "",
          "type": "address"
        }
      ],
      "name": "balanceOf",
      "outputs": [
        {
          "internalType": "uint256",
          "name": "",
          "type": "uint256"
        }
      ],
      "stateMutability": "view",
      "type": "function"
    },
    {
      "inputs": [
        {
          "internalType": "uint256",
          "name": "amount",
          "type": "uint256"
        }
      ],
      "name": "burn",
      "outputs": [],
      "stateMutability": "nonpayable",
      "type": "function"
    },
    {
      "inputs": [],
      "name": "decimal",
      "outputs": [
        {
          "internalType": "uint8",
          "name": "",
          "type": "uint8"
        }
      ],
      "stateMutability": "view",
      "type": "function"
    },
    {
      "inputs": [
        {
          "internalType": "address",
          "name": "_staker",
          "type": "address"
        }
      ],
      "name": "getSummary",
      "outputs": [
        {
          "components": [
            {
              "internalType": "address",
              "name": "user",
              "type": "address"
            },
            {
              "components": [
                {
                  "internalType": "address",
                  "name": "user",
                  "type": "address"
                },
                {
                  "internalType": "uint256",
                  "name": "amount",
                  "type": "uint256"
                },
                {
                  "internalType": "uint256",
                  "name": "since",
                  "type": "uint256"
                },
                {
                  "internalType": "uint256",
                  "name": "claimable",
                  "type": "uint256"
                }
              ],
              "internalType": "struct Staking.Stake[]",
              "name": "address_stakes",
              "type": "tuple[]"
            }
          ],
          "internalType": "struct Staking.Stakeholder",
          "name": "",
          "type": "tuple"
        }
      ],
      "stateMutability": "view",
      "type": "function"
    },
    {
      "inputs": [],
      "name": "getSummary",
      "outputs": [],
      "stateMutability": "nonpayable",
      "type": "function"
    },
    {
      "inputs": [
        {
          "internalType": "address",
          "name": "_staker",
          "type": "address"
        }
      ],
      "name": "hasStake",
      "outputs": [
        {
          "internalType": "uint256",
          "name": "",
          "type": "uint256"
        }
      ],
      "stateMutability": "view",
      "type": "function"
    },
    {
      "inputs": [
        {
          "internalType": "uint256",
          "name": "amount",
          "type": "uint256"
        }
      ],
      "name": "mint",
      "outputs": [],
      "stateMutability": "nonpayable",
      "type": "function"
    },
    {
      "inputs": [],
      "name": "name",
      "outputs": [
        {
          "internalType": "string",
          "name": "",
          "type": "string"
        }
      ],
      "stateMutability": "view",
      "type": "function"
    },
    {
      "inputs": [
        {
          "internalType": "address",
          "name": "sender",
          "type": "address"
        },
        {
          "internalType": "address",
          "name": "recipient",
          "type": "address"
        },
        {
          "internalType": "uint256",
          "name": "amount",
          "type": "uint256"
        }
      ],
      "name": "sendToAddress",
      "outputs": [],
      "stateMutability": "nonpayable",
      "type": "function"
    },
    {
      "inputs": [
        {
          "internalType": "address",
          "name": "recipient",
          "type": "address"
        },
        {
          "internalType": "uint256",
          "name": "amount",
          "type": "uint256"
        }
      ],
      "name": "sendToContract",
      "outputs": [],
      "stateMutability": "nonpayable",
      "type": "function"
    },
    {
      "inputs": [
        {
          "internalType": "uint256",
          "name": "_amount",
          "type": "uint256"
        }
      ],
      "name": "stake",
      "outputs": [],
      "stateMutability": "nonpayable",
      "type": "function"
    },
    {
      "inputs": [],
      "name": "stakerSummart",
      "outputs": [
        {
          "components": [
            {
              "internalType": "address",
              "name": "user",
              "type": "address"
            },
            {
              "components": [
                {
                  "internalType": "address",
                  "name": "user",
                  "type": "address"
                },
                {
                  "internalType": "uint256",
                  "name": "amount",
                  "type": "uint256"
                },
                {
                  "internalType": "uint256",
                  "name": "since",
                  "type": "uint256"
                },
                {
                  "internalType": "uint256",
                  "name": "claimable",
                  "type": "uint256"
                }
              ],
              "internalType": "struct Staking.Stake[]",
              "name": "address_stakes",
              "type": "tuple[]"
            }
          ],
          "internalType": "struct Staking.Stakeholder",
          "name": "",
          "type": "tuple"
        }
      ],
      "stateMutability": "view",
      "type": "function"
    },
    {
      "inputs": [],
      "name": "symbol",
      "outputs": [
        {
          "internalType": "string",
          "name": "",
          "type": "string"
        }
      ],
      "stateMutability": "view",
      "type": "function"
    },
    {
      "inputs": [],
      "name": "totalSupply",
      "outputs": [
        {
          "internalType": "uint256",
          "name": "",
          "type": "uint256"
        }
      ],
      "stateMutability": "view",
      "type": "function"
    },
    {
      "inputs": [
        {
          "internalType": "address",
          "name": "recipient",
          "type": "address"
        },
        {
          "internalType": "uint256",
          "name": "amount",
          "type": "uint256"
        }
      ],
      "name": "transfer",
      "outputs": [
        {
          "internalType": "bool",
          "name": "",
          "type": "bool"
        }
      ],
      "stateMutability": "nonpayable",
      "type": "function"
    },
    {
      "inputs": [
        {
          "internalType": "address",
          "name": "sender",
          "type": "address"
        },
        {
          "internalType": "address",
          "name": "recipient",
          "type": "address"
        },
        {
          "internalType": "uint256",
          "name": "amount",
          "type": "uint256"
        }
      ],
      "name": "transferFrom",
      "outputs": [
        {
          "internalType": "bool",
          "name": "",
          "type": "bool"
        }
      ],
      "stateMutability": "nonpayable",
      "type": "function"
    },
    {
      "inputs": [
        {
          "internalType": "uint256",
          "name": "_amount",
          "type": "uint256"
        },
        {
          "internalType": "uint256",
          "name": "stake_index",
          "type": "uint256"
        }
      ],
      "name": "withdrawStake",
      "outputs": [],
      "stateMutability": "nonpayable",
      "type": "function"
    }
  ],
  "bytecode": "0x60806040526103e86000556040518060400160405280600481526020017f54657374000000000000000000000000000000000000000000000000000000008152506006908051906020019062000057929190620000f3565b506040518060400160405280600481526020017f544553540000000000000000000000000000000000000000000000000000000081525060079080519060200190620000a5929190620000f3565b506012600860006101000a81548160ff021916908360ff160217905550348015620000cf57600080fd5b50600180816001815401808255809150500390600052602060002090505062000208565b8280546200010190620001d2565b90600052602060002090601f01602090048101928262000125576000855562000171565b82601f106200014057805160ff191683800117855562000171565b8280016001018555821562000171579182015b828111156200017057825182559160200191906001019062000153565b5b50905062000180919062000184565b5090565b5b808211156200019f57600081600090555060010162000185565b5090565b7f4e487b7100000000000000000000000000000000000000000000000000000000600052602260045260246000fd5b60006002820490506001821680620001eb57607f821691505b60208210811415620002025762000201620001a3565b5b50919050565b61218080620002186000396000f3fe608060405234801561001057600080fd5b506004361061012c5760003560e01c806395d89b41116100ad578063e22f9ea611610071578063e22f9ea614610345578063e73e14bf14610361578063f1fdf46914610391578063fab1e747146103ad578063fbd95a39146103cb5761012c565b806395d89b411461028f578063a0712d68146102ad578063a694fc3a146102c9578063a9059cbb146102e5578063dd62ed3e146103155761012c565b80633f733e48116100f45780633f733e48146101eb5780634051ddac1461021b57806342966c681461022557806370a082311461024157806376809ce3146102715761012c565b806306fdde0314610131578063095ea7b31461014f57806318160ddd1461017f57806323b872dd1461019d57806336e4392b146101cd575b600080fd5b6101396103e7565b6040516101469190611966565b60405180910390f35b61016960048036038101906101649190611a21565b610475565b6040516101769190611a7c565b60405180910390f35b610187610567565b6040516101949190611aa6565b60405180910390f35b6101b760048036038101906101b29190611ac1565b61056d565b6040516101c49190611a7c565b60405180910390f35b6101d561071e565b6040516101e29190611c73565b60405180910390f35b61020560048036038101906102009190611c95565b610734565b6040516102129190611c73565b60405180910390f35b6102236108d8565b005b61023f600480360381019061023a9190611cc2565b6108ef565b005b61025b60048036038101906102569190611c95565b6109c7565b6040516102689190611aa6565b60405180910390f35b6102796109df565b6040516102869190611d0b565b60405180910390f35b6102976109f2565b6040516102a49190611966565b60405180910390f35b6102c760048036038101906102c29190611cc2565b610a80565b005b6102e360048036038101906102de9190611cc2565b610b58565b005b6102ff60048036038101906102fa9190611a21565b610c54565b60405161030c9190611a7c565b60405180910390f35b61032f600480360381019061032a9190611d26565b610d71565b60405161033c9190611aa6565b60405180910390f35b61035f600480360381019061035a9190611a21565b610d96565b005b61037b60048036038101906103769190611c95565b610f21565b6040516103889190611aa6565b60405180910390f35b6103ab60048036038101906103a69190611d66565b61112c565b005b6103b56111ae565b6040516103c29190611aa6565b60405180910390f35b6103e560048036038101906103e09190611ac1565b6111b4565b005b600680546103f490611dd5565b80601f016020809104026020016040519081016040528092919081815260200182805461042090611dd5565b801561046d5780601f106104425761010080835404028352916020019161046d565b820191906000526020600020905b81548152906001019060200180831161045057829003601f168201915b505050505081565b600081600560003373ffffffffffffffffffffffffffffffffffffffff1673ffffffffffffffffffffffffffffffffffffffff16815260200190815260200160002060008573ffffffffffffffffffffffffffffffffffffffff1673ffffffffffffffffffffffffffffffffffffffff168152602001908152602001600020819055508273ffffffffffffffffffffffffffffffffffffffff163373ffffffffffffffffffffffffffffffffffffffff167f8c5be1e5ebec7d5bd14f71427d1e84f3dd0314c0f7b2291e5b200ac8c7c3b925846040516105559190611aa6565b60405180910390a36001905092915050565b60035481565b600081600560008673ffffffffffffffffffffffffffffffffffffffff1673ffffffffffffffffffffffffffffffffffffffff16815260200190815260200160002060003373ffffffffffffffffffffffffffffffffffffffff1673ffffffffffffffffffffffffffffffffffffffff16815260200190815260200160002060008282546105fb9190611e36565b9250508190555081600460008673ffffffffffffffffffffffffffffffffffffffff1673ffffffffffffffffffffffffffffffffffffffff16815260200190815260200160002060008282546106519190611e36565b9250508190555081600460008573ffffffffffffffffffffffffffffffffffffffff1673ffffffffffffffffffffffffffffffffffffffff16815260200190815260200160002060008282546106a79190611e6a565b925050819055508273ffffffffffffffffffffffffffffffffffffffff168473ffffffffffffffffffffffffffffffffffffffff167fddf252ad1be2c89b69c2b068fc378daa952ba7f163c4a11628f55a4df523b3ef8460405161070b9190611aa6565b60405180910390a3600190509392505050565b61072661189d565b61072f33610734565b905090565b61073c61189d565b6001600260008473ffffffffffffffffffffffffffffffffffffffff1673ffffffffffffffffffffffffffffffffffffffff168152602001908152602001600020548154811061078f5761078e611ec0565b5b90600052602060002090600202016040518060400160405290816000820160009054906101000a900473ffffffffffffffffffffffffffffffffffffffff1673ffffffffffffffffffffffffffffffffffffffff1673ffffffffffffffffffffffffffffffffffffffff16815260200160018201805480602002602001604051908101604052809291908181526020016000905b828210156108c957838290600052602060002090600402016040518060800160405290816000820160009054906101000a900473ffffffffffffffffffffffffffffffffffffffff1673ffffffffffffffffffffffffffffffffffffffff1673ffffffffffffffffffffffffffffffffffffffff168152602001600182015481526020016002820154815260200160038201548152505081526020019060010190610823565b50505050815250509050919050565b60006108e333610f21565b90508060098190555050565b80600460003373ffffffffffffffffffffffffffffffffffffffff1673ffffffffffffffffffffffffffffffffffffffff168152602001908152602001600020600082825461093e9190611e36565b9250508190555080600360008282546109579190611e36565b92505081905550600073ffffffffffffffffffffffffffffffffffffffff163373ffffffffffffffffffffffffffffffffffffffff167fddf252ad1be2c89b69c2b068fc378daa952ba7f163c4a11628f55a4df523b3ef836040516109bc9190611aa6565b60405180910390a350565b60046020528060005260406000206000915090505481565b600860009054906101000a900460ff1681565b600780546109ff90611dd5565b80601f0160208091040260200160405190810160405280929190818152602001828054610a2b90611dd5565b8015610a785780601f10610a4d57610100808354040283529160200191610a78565b820191906000526020600020905b815481529060010190602001808311610a5b57829003601f168201915b505050505081565b80600460003073ffffffffffffffffffffffffffffffffffffffff1673ffffffffffffffffffffffffffffffffffffffff1681526020019081526020016000206000828254610acf9190611e6a565b925050819055508060036000828254610ae89190611e6a565b925050819055503073ffffffffffffffffffffffffffffffffffffffff16600073ffffffffffffffffffffffffffffffffffffffff167fddf252ad1be2c89b69c2b068fc378daa952ba7f163c4a11628f55a4df523b3ef83604051610b4d9190611aa6565b60405180910390a350565b600460003373ffffffffffffffffffffffffffffffffffffffff1673ffffffffffffffffffffffffffffffffffffffff168152602001908152602001600020548110610bd9576040517f08c379a0000000000000000000000000000000000000000000000000000000008152600401610bd090611f3b565b60405180910390fd5b610be2816112ca565b80600460003373ffffffffffffffffffffffffffffffffffffffff1673ffffffffffffffffffffffffffffffffffffffff1681526020019081526020016000206000828254610c319190611e36565b925050819055508060036000828254610c4a9190611e36565b9250508190555050565b600081600460003373ffffffffffffffffffffffffffffffffffffffff1673ffffffffffffffffffffffffffffffffffffffff1681526020019081526020016000206000828254610ca59190611e36565b9250508190555081600460008573ffffffffffffffffffffffffffffffffffffffff1673ffffffffffffffffffffffffffffffffffffffff1681526020019081526020016000206000828254610cfb9190611e6a565b925050819055508273ffffffffffffffffffffffffffffffffffffffff163373ffffffffffffffffffffffffffffffffffffffff167fddf252ad1be2c89b69c2b068fc378daa952ba7f163c4a11628f55a4df523b3ef84604051610d5f9190611aa6565b60405180910390a36001905092915050565b6005602052816000526040600020602052806000526040600020600091509150505481565b7f909c57d5c6ac08245cf2a6de3900e2b868513fa59099b92b27d8db823d92df9c600460003073ffffffffffffffffffffffffffffffffffffffff1673ffffffffffffffffffffffffffffffffffffffff16815260200190815260200160002054604051610e049190611aa6565b60405180910390a180600460003073ffffffffffffffffffffffffffffffffffffffff1673ffffffffffffffffffffffffffffffffffffffff1681526020019081526020016000206000828254610e5b9190611e36565b9250508190555080600460008473ffffffffffffffffffffffffffffffffffffffff1673ffffffffffffffffffffffffffffffffffffffff1681526020019081526020016000206000828254610eb19190611e6a565b925050819055508173ffffffffffffffffffffffffffffffffffffffff163073ffffffffffffffffffffffffffffffffffffffff167fddf252ad1be2c89b69c2b068fc378daa952ba7f163c4a11628f55a4df523b3ef83604051610f159190611aa6565b60405180910390a35050565b60008060006040518060400160405280600081526020016001600260008873ffffffffffffffffffffffffffffffffffffffff1673ffffffffffffffffffffffffffffffffffffffff1681526020019081526020016000205481548110610f8b57610f8a611ec0565b5b9060005260206000209060020201600101805480602002602001604051908101604052809291908181526020016000905b8282101561106257838290600052602060002090600402016040518060800160405290816000820160009054906101000a900473ffffffffffffffffffffffffffffffffffffffff1673ffffffffffffffffffffffffffffffffffffffff1673ffffffffffffffffffffffffffffffffffffffff168152602001600182015481526020016002820154815260200160038201548152505081526020019060010190610fbc565b50505050815250905060005b8160200151518110156111135760006110a48360200151838151811061109757611096611ec0565b5b60200260200101516114af565b905080836020015183815181106110be576110bd611ec0565b5b60200260200101516060018181525050826020015182815181106110e5576110e4611ec0565b5b602002602001015160600151846110fc9190611e6a565b93505060018161110c9190611e6a565b905061106e565b5081816000018181525050806000015192505050919050565b600061113883836114ef565b905080600460003373ffffffffffffffffffffffffffffffffffffffff1673ffffffffffffffffffffffffffffffffffffffff16815260200190815260200160002060008282546111899190611e6a565b9250508190555080600360008282546111a29190611e6a565b92505081905550505050565b60095481565b80600460008573ffffffffffffffffffffffffffffffffffffffff1673ffffffffffffffffffffffffffffffffffffffff16815260200190815260200160002060008282546112039190611e36565b9250508190555080600460008473ffffffffffffffffffffffffffffffffffffffff1673ffffffffffffffffffffffffffffffffffffffff16815260200190815260200160002060008282546112599190611e6a565b925050819055508173ffffffffffffffffffffffffffffffffffffffff168373ffffffffffffffffffffffffffffffffffffffff167fddf252ad1be2c89b69c2b068fc378daa952ba7f163c4a11628f55a4df523b3ef836040516112bd9190611aa6565b60405180910390a3505050565b6000811161130d576040517f08c379a000000000000000000000000000000000000000000000000000000000815260040161130490611fa7565b60405180910390fd5b6000600260003373ffffffffffffffffffffffffffffffffffffffff1673ffffffffffffffffffffffffffffffffffffffff1681526020019081526020016000205490506000429050600082141561136b57611368336117b8565b91505b6001828154811061137f5761137e611ec0565b5b906000526020600020906002020160010160405180608001604052803373ffffffffffffffffffffffffffffffffffffffff1681526020018581526020018381526020016000815250908060018154018082558091505060019003906000526020600020906004020160009091909190915060008201518160000160006101000a81548173ffffffffffffffffffffffffffffffffffffffff021916908373ffffffffffffffffffffffffffffffffffffffff16021790555060208201518160010155604082015181600201556060820151816003015550503373ffffffffffffffffffffffffffffffffffffffff167fb4caaf29adda3eefee3ad552a8e85058589bf834c7466cae4ee58787f70589ed8484846040516114a293929190611fc7565b60405180910390a2505050565b600080548260200151603c8460400151426114ca9190611e36565b6114d4919061202d565b6114de919061205e565b6114e8919061202d565b9050919050565b600080600260003373ffffffffffffffffffffffffffffffffffffffff1673ffffffffffffffffffffffffffffffffffffffff16815260200190815260200160002054905060006001828154811061154a57611549611ec0565b5b9060005260206000209060020201600101848154811061156d5761156c611ec0565b5b90600052602060002090600402016040518060800160405290816000820160009054906101000a900473ffffffffffffffffffffffffffffffffffffffff1673ffffffffffffffffffffffffffffffffffffffff1673ffffffffffffffffffffffffffffffffffffffff168152602001600182015481526020016002820154815260200160038201548152505090508481602001511015611643576040517f08c379a000000000000000000000000000000000000000000000000000000000815260040161163a9061212a565b60405180910390fd5b600061164e826114af565b90508582602001516116609190611e36565b826020018181525050600082602001511415611702576001838154811061168a57611689611ec0565b5b906000526020600020906002020160010185815481106116ad576116ac611ec0565b5b9060005260206000209060040201600080820160006101000a81549073ffffffffffffffffffffffffffffffffffffffff021916905560018201600090556002820160009055600382016000905550506117a1565b81602001516001848154811061171b5761171a611ec0565b5b9060005260206000209060020201600101868154811061173e5761173d611ec0565b5b906000526020600020906004020160010181905550426001848154811061176857611767611ec0565b5b9060005260206000209060020201600101868154811061178b5761178a611ec0565b5b9060005260206000209060040201600201819055505b80866117ad9190611e6a565b935050505092915050565b600060018081600181540180825580915050039060005260206000209050506000600180805490506117ea9190611e36565b9050826001828154811061180157611800611ec0565b5b906000526020600020906002020160000160006101000a81548173ffffffffffffffffffffffffffffffffffffffff021916908373ffffffffffffffffffffffffffffffffffffffff16021790555080600260008573ffffffffffffffffffffffffffffffffffffffff1673ffffffffffffffffffffffffffffffffffffffff1681526020019081526020016000208190555080915050919050565b6040518060400160405280600073ffffffffffffffffffffffffffffffffffffffff168152602001606081525090565b600081519050919050565b600082825260208201905092915050565b60005b838110156119075780820151818401526020810190506118ec565b83811115611916576000848401525b50505050565b6000601f19601f8301169050919050565b6000611938826118cd565b61194281856118d8565b93506119528185602086016118e9565b61195b8161191c565b840191505092915050565b60006020820190508181036000830152611980818461192d565b905092915050565b600080fd5b600073ffffffffffffffffffffffffffffffffffffffff82169050919050565b60006119b88261198d565b9050919050565b6119c8816119ad565b81146119d357600080fd5b50565b6000813590506119e5816119bf565b92915050565b6000819050919050565b6119fe816119eb565b8114611a0957600080fd5b50565b600081359050611a1b816119f5565b92915050565b60008060408385031215611a3857611a37611988565b5b6000611a46858286016119d6565b9250506020611a5785828601611a0c565b9150509250929050565b60008115159050919050565b611a7681611a61565b82525050565b6000602082019050611a916000830184611a6d565b92915050565b611aa0816119eb565b82525050565b6000602082019050611abb6000830184611a97565b92915050565b600080600060608486031215611ada57611ad9611988565b5b6000611ae8868287016119d6565b9350506020611af9868287016119d6565b9250506040611b0a86828701611a0c565b9150509250925092565b611b1d816119ad565b82525050565b600081519050919050565b600082825260208201905092915050565b6000819050602082019050919050565b611b58816119eb565b82525050565b608082016000820151611b746000850182611b14565b506020820151611b876020850182611b4f565b506040820151611b9a6040850182611b4f565b506060820151611bad6060850182611b4f565b50505050565b6000611bbf8383611b5e565b60808301905092915050565b6000602082019050919050565b6000611be382611b23565b611bed8185611b2e565b9350611bf883611b3f565b8060005b83811015611c29578151611c108882611bb3565b9750611c1b83611bcb565b925050600181019050611bfc565b5085935050505092915050565b6000604083016000830151611c4e6000860182611b14565b5060208301518482036020860152611c668282611bd8565b9150508091505092915050565b60006020820190508181036000830152611c8d8184611c36565b905092915050565b600060208284031215611cab57611caa611988565b5b6000611cb9848285016119d6565b91505092915050565b600060208284031215611cd857611cd7611988565b5b6000611ce684828501611a0c565b91505092915050565b600060ff82169050919050565b611d0581611cef565b82525050565b6000602082019050611d206000830184611cfc565b92915050565b60008060408385031215611d3d57611d3c611988565b5b6000611d4b858286016119d6565b9250506020611d5c858286016119d6565b9150509250929050565b60008060408385031215611d7d57611d7c611988565b5b6000611d8b85828601611a0c565b9250506020611d9c85828601611a0c565b9150509250929050565b7f4e487b7100000000000000000000000000000000000000000000000000000000600052602260045260246000fd5b60006002820490506001821680611ded57607f821691505b60208210811415611e0157611e00611da6565b5b50919050565b7f4e487b7100000000000000000000000000000000000000000000000000000000600052601160045260246000fd5b6000611e41826119eb565b9150611e4c836119eb565b925082821015611e5f57611e5e611e07565b5b828203905092915050565b6000611e75826119eb565b9150611e80836119eb565b9250827fffffffffffffffffffffffffffffffffffffffffffffffffffffffffffffffff03821115611eb557611eb4611e07565b5b828201905092915050565b7f4e487b7100000000000000000000000000000000000000000000000000000000600052603260045260246000fd5b7f4e6f7420656e6f75676820746f6b656e73000000000000000000000000000000600082015250565b6000611f256011836118d8565b9150611f3082611eef565b602082019050919050565b60006020820190508181036000830152611f5481611f18565b9050919050565b7f43616e6e6f74207374616b65206e6f7468696e67000000000000000000000000600082015250565b6000611f916014836118d8565b9150611f9c82611f5b565b602082019050919050565b60006020820190508181036000830152611fc081611f84565b9050919050565b6000606082019050611fdc6000830186611a97565b611fe96020830185611a97565b611ff66040830184611a97565b949350505050565b7f4e487b7100000000000000000000000000000000000000000000000000000000600052601260045260246000fd5b6000612038826119eb565b9150612043836119eb565b92508261205357612052611ffe565b5b828204905092915050565b6000612069826119eb565b9150612074836119eb565b9250817fffffffffffffffffffffffffffffffffffffffffffffffffffffffffffffffff04831182151516156120ad576120ac611e07565b5b828202905092915050565b7f5374616b696e673a2043616e6e6f74207769746864726177206d6f726520746860008201527f616e20796f752068617665207374616b65640000000000000000000000000000602082015250565b60006121146032836118d8565b915061211f826120b8565b604082019050919050565b6000602082019050818103600083015261214381612107565b905091905056fea26469706673582212201ad2ec65fad0ebc17344bb992c6ca718d90ab097911ecb1ed5a1aa2931e7890a64736f6c634300080a0033",
  "linkReferences": {},
  "deployedLinkReferences": {}
}