{
  "_format": "hh-sol-artifact-1",
  "contractName": "Crowdfund",
  "sourceName": "contracts/Crowdfund.sol",
  "abi": [
    {
      "anonymous": false,
      "inputs": [
        {
          "indexed": false,
          "internalType": "uint256",
          "name": "id",
          "type": "uint256"
        }
      ],
      "name": "Cancel",
      "type": "event"
    },
    {
      "anonymous": false,
      "inputs": [
        {
          "indexed": false,
          "internalType": "uint256",
          "name": "id",
          "type": "uint256"
        }
      ],
      "name": "Claim",
      "type": "event"
    },
    {
      "anonymous": false,
      "inputs": [
        {
          "indexed": false,
          "internalType": "uint256",
          "name": "id",
          "type": "uint256"
        },
        {
          "indexed": true,
          "internalType": "address",
          "name": "creator",
          "type": "address"
        },
        {
          "indexed": false,
          "internalType": "uint256",
          "name": "goal",
          "type": "uint256"
        },
        {
          "indexed": false,
          "internalType": "uint32",
          "name": "startAt",
          "type": "uint32"
        },
        {
          "indexed": false,
          "internalType": "uint32",
          "name": "endAt",
          "type": "uint32"
        }
      ],
      "name": "Launch",
      "type": "event"
    },
    {
      "anonymous": false,
      "inputs": [
        {
          "indexed": false,
          "internalType": "uint256",
          "name": "amount",
          "type": "uint256"
        },
        {
          "indexed": false,
          "internalType": "uint256",
          "name": "gas",
          "type": "uint256"
        }
      ],
      "name": "Log",
      "type": "event"
    },
    {
      "anonymous": false,
      "inputs": [
        {
          "indexed": true,
          "internalType": "uint256",
          "name": "id",
          "type": "uint256"
        },
        {
          "indexed": true,
          "internalType": "address",
          "name": "caller",
          "type": "address"
        },
        {
          "indexed": false,
          "internalType": "uint256",
          "name": "amount",
          "type": "uint256"
        }
      ],
      "name": "Pledge",
      "type": "event"
    },
    {
      "anonymous": false,
      "inputs": [
        {
          "indexed": true,
          "internalType": "uint256",
          "name": "id",
          "type": "uint256"
        },
        {
          "indexed": true,
          "internalType": "address",
          "name": "caller",
          "type": "address"
        },
        {
          "indexed": false,
          "internalType": "uint256",
          "name": "amount",
          "type": "uint256"
        }
      ],
      "name": "Refund",
      "type": "event"
    },
    {
      "anonymous": false,
      "inputs": [
        {
          "indexed": true,
          "internalType": "uint256",
          "name": "id",
          "type": "uint256"
        },
        {
          "indexed": true,
          "internalType": "address",
          "name": "caller",
          "type": "address"
        },
        {
          "indexed": false,
          "internalType": "uint256",
          "name": "amount",
          "type": "uint256"
        }
      ],
      "name": "Unpledge",
      "type": "event"
    },
    {
      "inputs": [
        {
          "internalType": "uint256",
          "name": "",
          "type": "uint256"
        }
      ],
      "name": "campaigns",
      "outputs": [
        {
          "internalType": "address",
          "name": "creator",
          "type": "address"
        },
        {
          "internalType": "uint256",
          "name": "goal",
          "type": "uint256"
        },
        {
          "internalType": "uint256",
          "name": "pledged",
          "type": "uint256"
        },
        {
          "internalType": "uint32",
          "name": "startAt",
          "type": "uint32"
        },
        {
          "internalType": "uint32",
          "name": "endAt",
          "type": "uint32"
        },
        {
          "internalType": "bool",
          "name": "claimed",
          "type": "bool"
        }
      ],
      "stateMutability": "view",
      "type": "function"
    },
    {
      "inputs": [
        {
          "internalType": "uint256",
          "name": "_id",
          "type": "uint256"
        }
      ],
      "name": "cancel",
      "outputs": [],
      "stateMutability": "nonpayable",
      "type": "function"
    },
    {
      "inputs": [
        {
          "internalType": "uint256",
          "name": "_id",
          "type": "uint256"
        }
      ],
      "name": "claim",
      "outputs": [],
      "stateMutability": "nonpayable",
      "type": "function"
    },
    {
      "inputs": [],
      "name": "count",
      "outputs": [
        {
          "internalType": "uint256",
          "name": "",
          "type": "uint256"
        }
      ],
      "stateMutability": "view",
      "type": "function"
    },
    {
      "inputs": [
        {
          "internalType": "uint256",
          "name": "_goal",
          "type": "uint256"
        },
        {
          "internalType": "uint32",
          "name": "_startAt",
          "type": "uint32"
        },
        {
          "internalType": "uint32",
          "name": "_endAt",
          "type": "uint32"
        }
      ],
      "name": "launch",
      "outputs": [],
      "stateMutability": "nonpayable",
      "type": "function"
    },
    {
      "inputs": [
        {
          "internalType": "uint256",
          "name": "_id",
          "type": "uint256"
        },
        {
          "internalType": "uint256",
          "name": "_amount",
          "type": "uint256"
        }
      ],
      "name": "pledge",
      "outputs": [],
      "stateMutability": "payable",
      "type": "function"
    },
    {
      "inputs": [
        {
          "internalType": "uint256",
          "name": "",
          "type": "uint256"
        },
        {
          "internalType": "address",
          "name": "",
          "type": "address"
        }
      ],
      "name": "pledgedAmount",
      "outputs": [
        {
          "internalType": "uint256",
          "name": "",
          "type": "uint256"
        }
      ],
      "stateMutability": "view",
      "type": "function"
    },
    {
      "inputs": [
        {
          "internalType": "uint256",
          "name": "_id",
          "type": "uint256"
        }
      ],
      "name": "refund",
      "outputs": [],
      "stateMutability": "nonpayable",
      "type": "function"
    },
    {
      "inputs": [
        {
          "internalType": "uint256",
          "name": "_id",
          "type": "uint256"
        },
        {
          "internalType": "uint256",
          "name": "_amount",
          "type": "uint256"
        }
      ],
      "name": "unpledge",
      "outputs": [],
      "stateMutability": "nonpayable",
      "type": "function"
    },
    {
      "stateMutability": "payable",
      "type": "receive"
    }
  ],
  "bytecode": "0x608060405234801561001057600080fd5b50611ae2806100206000396000f3fe60806040526004361061008a5760003560e01c8063379607f511610059578063379607f51461018e57806340e58ee5146101b7578063711853ab146101e0578063aa4fb63a14610209578063fde327be14610246576100ca565b806306661abd146100cf578063141961bc146100fa578063278ecde11461013c5780632c63f14614610165576100ca565b366100ca577fbd0faddf87043dd749c1b9d4dca8a12589b8cb5e2106832111ce23f219b14367345a6040516100c092919061119e565b60405180910390a1005b600080fd5b3480156100db57600080fd5b506100e4610262565b6040516100f191906111c7565b60405180910390f35b34801561010657600080fd5b50610121600480360381019061011c9190611213565b610268565b604051610133969594939291906112bb565b60405180910390f35b34801561014857600080fd5b50610163600480360381019061015e9190611213565b6102f1565b005b34801561017157600080fd5b5061018c60048036038101906101879190611348565b61055a565b005b34801561019a57600080fd5b506101b560048036038101906101b09190611213565b6107f0565b005b3480156101c357600080fd5b506101de60048036038101906101d99190611213565b610a9b565b005b3480156101ec57600080fd5b506102076004803603810190610202919061139b565b610d16565b005b34801561021557600080fd5b50610230600480360381019061022b9190611407565b610f0d565b60405161023d91906111c7565b60405180910390f35b610260600480360381019061025b919061139b565b610f32565b005b60005481565b60016020528060005260406000206000915090508060000160009054906101000a900473ffffffffffffffffffffffffffffffffffffffff16908060010154908060020154908060030160009054906101000a900463ffffffff16908060030160049054906101000a900463ffffffff16908060030160089054906101000a900460ff16905086565b60006001600083815260200190815260200160002090508060030160049054906101000a900463ffffffff1663ffffffff164211610364576040517f08c379a000000000000000000000000000000000000000000000000000000000815260040161035b906114a4565b60405180910390fd5b80600101548160020154106103ae576040517f08c379a00000000000000000000000000000000000000000000000000000000081526004016103a590611510565b60405180910390fd5b60006002600084815260200190815260200160002060003373ffffffffffffffffffffffffffffffffffffffff1673ffffffffffffffffffffffffffffffffffffffff16815260200190815260200160002054905060003373ffffffffffffffffffffffffffffffffffffffff168260405161042990611561565b60006040518083038185875af1925050503d8060008114610466576040519150601f19603f3d011682016040523d82523d6000602084013e61046b565b606091505b50509050806104af576040517f08c379a00000000000000000000000000000000000000000000000000000000081526004016104a6906115c2565b60405180910390fd5b60006002600086815260200190815260200160002060003373ffffffffffffffffffffffffffffffffffffffff1673ffffffffffffffffffffffffffffffffffffffff168152602001908152602001600020819055503373ffffffffffffffffffffffffffffffffffffffff16847f21e12a7cad0da5928167e1084ea4d5fdf8d9af66657a2543a9ac76a0ca0814778460405161054c91906111c7565b60405180910390a350505050565b428263ffffffff1610156105a3576040517f08c379a000000000000000000000000000000000000000000000000000000000815260040161059a9061162e565b60405180910390fd5b8163ffffffff168163ffffffff1610156105f2576040517f08c379a00000000000000000000000000000000000000000000000000000000081526004016105e99061169a565b60405180910390fd5b6276a7004261060191906116e9565b8163ffffffff161115610649576040517f08c379a00000000000000000000000000000000000000000000000000000000081526004016106409061178b565b60405180910390fd5b600160008082825461065b91906116e9565b925050819055506040518060c001604052803373ffffffffffffffffffffffffffffffffffffffff168152602001848152602001600081526020018363ffffffff1681526020018263ffffffff16815260200160001515815250600160008054815260200190815260200160002060008201518160000160006101000a81548173ffffffffffffffffffffffffffffffffffffffff021916908373ffffffffffffffffffffffffffffffffffffffff160217905550602082015181600101556040820151816002015560608201518160030160006101000a81548163ffffffff021916908363ffffffff16021790555060808201518160030160046101000a81548163ffffffff021916908363ffffffff16021790555060a08201518160030160086101000a81548160ff0219169083151502179055509050503373ffffffffffffffffffffffffffffffffffffffff167f0601cd0d650b473037e838a2696d41e654433d065b3f56b28d1d3302e44a304f6000548585856040516107e394939291906117ab565b60405180910390a2505050565b60006001600083815260200190815260200160002090508060000160009054906101000a900473ffffffffffffffffffffffffffffffffffffffff1673ffffffffffffffffffffffffffffffffffffffff163373ffffffffffffffffffffffffffffffffffffffff1614610899576040517f08c379a00000000000000000000000000000000000000000000000000000000081526004016108909061183c565b60405180910390fd5b8060030160049054906101000a900463ffffffff1663ffffffff1642116108f5576040517f08c379a00000000000000000000000000000000000000000000000000000000081526004016108ec906114a4565b60405180910390fd5b806001015481600201541015610940576040517f08c379a0000000000000000000000000000000000000000000000000000000008152600401610937906118a8565b60405180910390fd5b8060030160089054906101000a900460ff1615610992576040517f08c379a000000000000000000000000000000000000000000000000000000000815260040161098990611914565b60405180910390fd5b60003373ffffffffffffffffffffffffffffffffffffffff1682600201546040516109bc90611561565b60006040518083038185875af1925050503d80600081146109f9576040519150601f19603f3d011682016040523d82523d6000602084013e6109fe565b606091505b5050905080610a42576040517f08c379a0000000000000000000000000000000000000000000000000000000008152600401610a39906115c2565b60405180910390fd5b60018260030160086101000a81548160ff0219169083151502179055507f7bb2b3c10797baccb6f8c4791f1edd6ca2f0d028ee0eda64b01a9a57e3a653f783604051610a8e91906111c7565b60405180910390a1505050565b6000600160008381526020019081526020016000206040518060c00160405290816000820160009054906101000a900473ffffffffffffffffffffffffffffffffffffffff1673ffffffffffffffffffffffffffffffffffffffff1673ffffffffffffffffffffffffffffffffffffffff16815260200160018201548152602001600282015481526020016003820160009054906101000a900463ffffffff1663ffffffff1663ffffffff1681526020016003820160049054906101000a900463ffffffff1663ffffffff1663ffffffff1681526020016003820160089054906101000a900460ff1615151515815250509050806000015173ffffffffffffffffffffffffffffffffffffffff163373ffffffffffffffffffffffffffffffffffffffff1614610c00576040517f08c379a0000000000000000000000000000000000000000000000000000000008152600401610bf79061183c565b60405180910390fd5b806060015163ffffffff164210610c4c576040517f08c379a0000000000000000000000000000000000000000000000000000000008152600401610c4390611980565b60405180910390fd5b60016000838152602001908152602001600020600080820160006101000a81549073ffffffffffffffffffffffffffffffffffffffff0219169055600182016000905560028201600090556003820160006101000a81549063ffffffff02191690556003820160046101000a81549063ffffffff02191690556003820160086101000a81549060ff021916905550507f8bf30e7ff26833413be5f69e1d373744864d600b664204b4a2f9844a8eedb9ed82604051610d0a91906111c7565b60405180910390a15050565b60006001600084815260200190815260200160002090508060030160049054906101000a900463ffffffff1663ffffffff16421115610d8a576040517f08c379a0000000000000000000000000000000000000000000000000000000008152600401610d81906119ec565b60405180910390fd5b60003373ffffffffffffffffffffffffffffffffffffffff1683604051610db090611561565b60006040518083038185875af1925050503d8060008114610ded576040519150601f19603f3d011682016040523d82523d6000602084013e610df2565b606091505b5050905080610e36576040517f08c379a0000000000000000000000000000000000000000000000000000000008152600401610e2d906115c2565b60405180910390fd5b82826002016000828254610e4a9190611a0c565b92505081905550826002600086815260200190815260200160002060003373ffffffffffffffffffffffffffffffffffffffff1673ffffffffffffffffffffffffffffffffffffffff1681526020019081526020016000206000828254610eb19190611a0c565b925050819055503373ffffffffffffffffffffffffffffffffffffffff16847f2eeeab891b26a214d1b25749f88a406bdea852bd8c9bfda977e0ef8114c180ba85604051610eff91906111c7565b60405180910390a350505050565b6002602052816000526040600020602052806000526040600020600091509150505481565b60006001600084815260200190815260200160002090508060030160009054906101000a900463ffffffff1663ffffffff164211610fa5576040517f08c379a0000000000000000000000000000000000000000000000000000000008152600401610f9c90611a8c565b60405180910390fd5b8060030160049054906101000a900463ffffffff1663ffffffff16421115611002576040517f08c379a0000000000000000000000000000000000000000000000000000000008152600401610ff9906119ec565b60405180910390fd5b60003073ffffffffffffffffffffffffffffffffffffffff168360405161102890611561565b60006040518083038185875af1925050503d8060008114611065576040519150601f19603f3d011682016040523d82523d6000602084013e61106a565b606091505b50509050806110ae576040517f08c379a00000000000000000000000000000000000000000000000000000000081526004016110a5906115c2565b60405180910390fd5b828260020160008282546110c291906116e9565b92505081905550826002600086815260200190815260200160002060003373ffffffffffffffffffffffffffffffffffffffff1673ffffffffffffffffffffffffffffffffffffffff168152602001908152602001600020600082825461112991906116e9565b925050819055503373ffffffffffffffffffffffffffffffffffffffff16847f06bdb975df800a73232998e71ed585d536222f1dfeaa622d7f62a23ada686c828560405161117791906111c7565b60405180910390a350505050565b6000819050919050565b61119881611185565b82525050565b60006040820190506111b3600083018561118f565b6111c0602083018461118f565b9392505050565b60006020820190506111dc600083018461118f565b92915050565b600080fd5b6111f081611185565b81146111fb57600080fd5b50565b60008135905061120d816111e7565b92915050565b600060208284031215611229576112286111e2565b5b6000611237848285016111fe565b91505092915050565b600073ffffffffffffffffffffffffffffffffffffffff82169050919050565b600061126b82611240565b9050919050565b61127b81611260565b82525050565b600063ffffffff82169050919050565b61129a81611281565b82525050565b60008115159050919050565b6112b5816112a0565b82525050565b600060c0820190506112d06000830189611272565b6112dd602083018861118f565b6112ea604083018761118f565b6112f76060830186611291565b6113046080830185611291565b61131160a08301846112ac565b979650505050505050565b61132581611281565b811461133057600080fd5b50565b6000813590506113428161131c565b92915050565b600080600060608486031215611361576113606111e2565b5b600061136f868287016111fe565b935050602061138086828701611333565b925050604061139186828701611333565b9150509250925092565b600080604083850312156113b2576113b16111e2565b5b60006113c0858286016111fe565b92505060206113d1858286016111fe565b9150509250929050565b6113e481611260565b81146113ef57600080fd5b50565b600081359050611401816113db565b92915050565b6000806040838503121561141e5761141d6111e2565b5b600061142c858286016111fe565b925050602061143d858286016113f2565b9150509250929050565b600082825260208201905092915050565b7f4e6f7420656e6465640000000000000000000000000000000000000000000000600082015250565b600061148e600983611447565b915061149982611458565b602082019050919050565b600060208201905081810360008301526114bd81611481565b9050919050565b7f706c6564676564203c20676f616c000000000000000000000000000000000000600082015250565b60006114fa600e83611447565b9150611505826114c4565b602082019050919050565b60006020820190508181036000830152611529816114ed565b9050919050565b600081905092915050565b50565b600061154b600083611530565b91506115568261153b565b600082019050919050565b600061156c8261153e565b9150819050919050565b7f43616c6c206661696c6564000000000000000000000000000000000000000000600082015250565b60006115ac600b83611447565b91506115b782611576565b602082019050919050565b600060208201905081810360008301526115db8161159f565b9050919050565b7f5374617274206174203c206e6f77000000000000000000000000000000000000600082015250565b6000611618600e83611447565b9150611623826115e2565b602082019050919050565b600060208201905081810360008301526116478161160b565b9050919050565b7f656e64206174203c207374617274206174000000000000000000000000000000600082015250565b6000611684601183611447565b915061168f8261164e565b602082019050919050565b600060208201905081810360008301526116b381611677565b9050919050565b7f4e487b7100000000000000000000000000000000000000000000000000000000600052601160045260246000fd5b60006116f482611185565b91506116ff83611185565b9250827fffffffffffffffffffffffffffffffffffffffffffffffffffffffffffffffff03821115611734576117336116ba565b5b828201905092915050565b7f656e64206174203e206d6178206475726174696f6e0000000000000000000000600082015250565b6000611775601583611447565b91506117808261173f565b602082019050919050565b600060208201905081810360008301526117a481611768565b9050919050565b60006080820190506117c0600083018761118f565b6117cd602083018661118f565b6117da6040830185611291565b6117e76060830184611291565b95945050505050565b7f4e6f742063726561746f72000000000000000000000000000000000000000000600082015250565b6000611826600b83611447565b9150611831826117f0565b602082019050919050565b6000602082019050818103600083015261185581611819565b9050919050565b7f706c65646765203c20676f616c00000000000000000000000000000000000000600082015250565b6000611892600d83611447565b915061189d8261185c565b602082019050919050565b600060208201905081810360008301526118c181611885565b9050919050565b7f436c61696d656400000000000000000000000000000000000000000000000000600082015250565b60006118fe600783611447565b9150611909826118c8565b602082019050919050565b6000602082019050818103600083015261192d816118f1565b9050919050565b7f7374617274656400000000000000000000000000000000000000000000000000600082015250565b600061196a600783611447565b915061197582611934565b602082019050919050565b600060208201905081810360008301526119998161195d565b9050919050565b7f456e646564000000000000000000000000000000000000000000000000000000600082015250565b60006119d6600583611447565b91506119e1826119a0565b602082019050919050565b60006020820190508181036000830152611a05816119c9565b9050919050565b6000611a1782611185565b9150611a2283611185565b925082821015611a3557611a346116ba565b5b828203905092915050565b7f4e6f742073746172746564000000000000000000000000000000000000000000600082015250565b6000611a76600b83611447565b9150611a8182611a40565b602082019050919050565b60006020820190508181036000830152611aa581611a69565b905091905056fea2646970667358221220bb5df5f8506b70f3e40dde25150c0608cd7fe90523349f06cfe58cc23f6f676a64736f6c634300080a0033",
  "linkReferences": {},
  "deployedLinkReferences": {}
}