{
  "_format": "hh-sol-artifact-1",
  "contractName": "Crowdfund",
  "sourceName": "contracts/Crowdfund.sol",
  "abi": [
    {
      "inputs": [
        {
          "internalType": "address",
          "name": "_token",
          "type": "address"
        }
      ],
      "stateMutability": "nonpayable",
      "type": "constructor"
    },
    {
      "anonymous": false,
      "inputs": [
        {
          "indexed": true,
          "internalType": "address",
          "name": "owner",
          "type": "address"
        },
        {
          "indexed": true,
          "internalType": "address",
          "name": "sender",
          "type": "address"
        },
        {
          "indexed": false,
          "internalType": "uint256",
          "name": "amount",
          "type": "uint256"
        }
      ],
      "name": "Approval",
      "type": "event"
    },
    {
      "anonymous": false,
      "inputs": [
        {
          "indexed": false,
          "internalType": "uint256",
          "name": "id",
          "type": "uint256"
        }
      ],
      "name": "Cancel",
      "type": "event"
    },
    {
      "anonymous": false,
      "inputs": [
        {
          "indexed": false,
          "internalType": "uint256",
          "name": "id",
          "type": "uint256"
        }
      ],
      "name": "Claim",
      "type": "event"
    },
    {
      "anonymous": false,
      "inputs": [
        {
          "indexed": false,
          "internalType": "uint256",
          "name": "id",
          "type": "uint256"
        },
        {
          "indexed": true,
          "internalType": "address",
          "name": "creator",
          "type": "address"
        },
        {
          "indexed": false,
          "internalType": "uint256",
          "name": "goal",
          "type": "uint256"
        },
        {
          "indexed": false,
          "internalType": "uint32",
          "name": "startAt",
          "type": "uint32"
        },
        {
          "indexed": false,
          "internalType": "uint32",
          "name": "endAt",
          "type": "uint32"
        }
      ],
      "name": "Launch",
      "type": "event"
    },
    {
      "anonymous": false,
      "inputs": [
        {
          "indexed": false,
          "internalType": "uint256",
          "name": "amount",
          "type": "uint256"
        },
        {
          "indexed": false,
          "internalType": "uint256",
          "name": "gas",
          "type": "uint256"
        }
      ],
      "name": "Log",
      "type": "event"
    },
    {
      "anonymous": false,
      "inputs": [
        {
          "indexed": false,
          "internalType": "uint256",
          "name": "amount",
          "type": "uint256"
        }
      ],
      "name": "Log",
      "type": "event"
    },
    {
      "anonymous": false,
      "inputs": [
        {
          "indexed": true,
          "internalType": "uint256",
          "name": "id",
          "type": "uint256"
        },
        {
          "indexed": true,
          "internalType": "address",
          "name": "caller",
          "type": "address"
        },
        {
          "indexed": false,
          "internalType": "uint256",
          "name": "amount",
          "type": "uint256"
        }
      ],
      "name": "Pledge",
      "type": "event"
    },
    {
      "anonymous": false,
      "inputs": [
        {
          "indexed": true,
          "internalType": "uint256",
          "name": "id",
          "type": "uint256"
        },
        {
          "indexed": true,
          "internalType": "address",
          "name": "caller",
          "type": "address"
        },
        {
          "indexed": false,
          "internalType": "uint256",
          "name": "amount",
          "type": "uint256"
        }
      ],
      "name": "Refund",
      "type": "event"
    },
    {
      "anonymous": false,
      "inputs": [
        {
          "indexed": true,
          "internalType": "address",
          "name": "user",
          "type": "address"
        },
        {
          "indexed": false,
          "internalType": "uint256",
          "name": "amount",
          "type": "uint256"
        },
        {
          "indexed": false,
          "internalType": "uint256",
          "name": "index",
          "type": "uint256"
        },
        {
          "indexed": false,
          "internalType": "uint256",
          "name": "timestamp",
          "type": "uint256"
        }
      ],
      "name": "Staked",
      "type": "event"
    },
    {
      "anonymous": false,
      "inputs": [
        {
          "indexed": true,
          "internalType": "address",
          "name": "from",
          "type": "address"
        },
        {
          "indexed": true,
          "internalType": "address",
          "name": "to",
          "type": "address"
        },
        {
          "indexed": false,
          "internalType": "uint256",
          "name": "amount",
          "type": "uint256"
        }
      ],
      "name": "Transfer",
      "type": "event"
    },
    {
      "anonymous": false,
      "inputs": [
        {
          "indexed": true,
          "internalType": "uint256",
          "name": "id",
          "type": "uint256"
        },
        {
          "indexed": true,
          "internalType": "address",
          "name": "caller",
          "type": "address"
        },
        {
          "indexed": false,
          "internalType": "uint256",
          "name": "amount",
          "type": "uint256"
        }
      ],
      "name": "Unpledge",
      "type": "event"
    },
    {
      "inputs": [
        {
          "internalType": "address",
          "name": "",
          "type": "address"
        },
        {
          "internalType": "address",
          "name": "",
          "type": "address"
        }
      ],
      "name": "allowance",
      "outputs": [
        {
          "internalType": "uint256",
          "name": "",
          "type": "uint256"
        }
      ],
      "stateMutability": "view",
      "type": "function"
    },
    {
      "inputs": [],
      "name": "amountStaked",
      "outputs": [
        {
          "internalType": "uint256",
          "name": "",
          "type": "uint256"
        }
      ],
      "stateMutability": "view",
      "type": "function"
    },
    {
      "inputs": [
        {
          "internalType": "address",
          "name": "sender",
          "type": "address"
        },
        {
          "internalType": "uint256",
          "name": "amount",
          "type": "uint256"
        }
      ],
      "name": "approve",
      "outputs": [
        {
          "internalType": "bool",
          "name": "",
          "type": "bool"
        }
      ],
      "stateMutability": "nonpayable",
      "type": "function"
    },
    {
      "inputs": [
        {
          "internalType": "address",
          "name": "",
          "type": "address"
        }
      ],
      "name": "balanceOf",
      "outputs": [
        {
          "internalType": "uint256",
          "name": "",
          "type": "uint256"
        }
      ],
      "stateMutability": "view",
      "type": "function"
    },
    {
      "inputs": [
        {
          "internalType": "uint256",
          "name": "amount",
          "type": "uint256"
        }
      ],
      "name": "burn",
      "outputs": [],
      "stateMutability": "nonpayable",
      "type": "function"
    },
    {
      "inputs": [
        {
          "internalType": "uint256",
          "name": "",
          "type": "uint256"
        }
      ],
      "name": "campaigns",
      "outputs": [
        {
          "internalType": "address",
          "name": "creator",
          "type": "address"
        },
        {
          "internalType": "uint256",
          "name": "goal",
          "type": "uint256"
        },
        {
          "internalType": "uint256",
          "name": "pledged",
          "type": "uint256"
        },
        {
          "internalType": "uint32",
          "name": "startAt",
          "type": "uint32"
        },
        {
          "internalType": "uint32",
          "name": "endAt",
          "type": "uint32"
        },
        {
          "internalType": "bool",
          "name": "claimed",
          "type": "bool"
        }
      ],
      "stateMutability": "view",
      "type": "function"
    },
    {
      "inputs": [
        {
          "internalType": "uint256",
          "name": "_id",
          "type": "uint256"
        }
      ],
      "name": "cancel",
      "outputs": [],
      "stateMutability": "nonpayable",
      "type": "function"
    },
    {
      "inputs": [
        {
          "internalType": "uint256",
          "name": "_id",
          "type": "uint256"
        }
      ],
      "name": "claim",
      "outputs": [],
      "stateMutability": "payable",
      "type": "function"
    },
    {
      "inputs": [
        {
          "internalType": "uint256",
          "name": "_id",
          "type": "uint256"
        }
      ],
      "name": "claimShares",
      "outputs": [],
      "stateMutability": "nonpayable",
      "type": "function"
    },
    {
      "inputs": [],
      "name": "count",
      "outputs": [
        {
          "internalType": "uint256",
          "name": "",
          "type": "uint256"
        }
      ],
      "stateMutability": "view",
      "type": "function"
    },
    {
      "inputs": [],
      "name": "decimal",
      "outputs": [
        {
          "internalType": "uint8",
          "name": "",
          "type": "uint8"
        }
      ],
      "stateMutability": "view",
      "type": "function"
    },
    {
      "inputs": [
        {
          "internalType": "address",
          "name": "_staker",
          "type": "address"
        }
      ],
      "name": "getSummary",
      "outputs": [
        {
          "components": [
            {
              "internalType": "address",
              "name": "user",
              "type": "address"
            },
            {
              "components": [
                {
                  "internalType": "address",
                  "name": "user",
                  "type": "address"
                },
                {
                  "internalType": "uint256",
                  "name": "amount",
                  "type": "uint256"
                },
                {
                  "internalType": "uint256",
                  "name": "since",
                  "type": "uint256"
                },
                {
                  "internalType": "uint256",
                  "name": "claimable",
                  "type": "uint256"
                }
              ],
              "internalType": "struct Staking.Stake[]",
              "name": "address_stakes",
              "type": "tuple[]"
            }
          ],
          "internalType": "struct Staking.Stakeholder",
          "name": "",
          "type": "tuple"
        }
      ],
      "stateMutability": "view",
      "type": "function"
    },
    {
      "inputs": [],
      "name": "getSummary",
      "outputs": [],
      "stateMutability": "nonpayable",
      "type": "function"
    },
    {
      "inputs": [
        {
          "internalType": "uint256",
          "name": "amount",
          "type": "uint256"
        }
      ],
      "name": "getTokens",
      "outputs": [],
      "stateMutability": "payable",
      "type": "function"
    },
    {
      "inputs": [
        {
          "internalType": "address",
          "name": "_staker",
          "type": "address"
        }
      ],
      "name": "hasStake",
      "outputs": [
        {
          "internalType": "uint256",
          "name": "",
          "type": "uint256"
        }
      ],
      "stateMutability": "view",
      "type": "function"
    },
    {
      "inputs": [
        {
          "internalType": "uint256",
          "name": "_goal",
          "type": "uint256"
        },
        {
          "internalType": "uint32",
          "name": "_startAt",
          "type": "uint32"
        },
        {
          "internalType": "uint32",
          "name": "_endAt",
          "type": "uint32"
        }
      ],
      "name": "launch",
      "outputs": [],
      "stateMutability": "nonpayable",
      "type": "function"
    },
    {
      "inputs": [
        {
          "internalType": "uint256",
          "name": "amount",
          "type": "uint256"
        }
      ],
      "name": "mint",
      "outputs": [],
      "stateMutability": "nonpayable",
      "type": "function"
    },
    {
      "inputs": [],
      "name": "name",
      "outputs": [
        {
          "internalType": "string",
          "name": "",
          "type": "string"
        }
      ],
      "stateMutability": "view",
      "type": "function"
    },
    {
      "inputs": [
        {
          "internalType": "uint256",
          "name": "_id",
          "type": "uint256"
        },
        {
          "internalType": "uint256",
          "name": "_amount",
          "type": "uint256"
        }
      ],
      "name": "pledge",
      "outputs": [],
      "stateMutability": "payable",
      "type": "function"
    },
    {
      "inputs": [
        {
          "internalType": "uint256",
          "name": "",
          "type": "uint256"
        },
        {
          "internalType": "address",
          "name": "",
          "type": "address"
        }
      ],
      "name": "pledgedAmount",
      "outputs": [
        {
          "internalType": "uint256",
          "name": "",
          "type": "uint256"
        }
      ],
      "stateMutability": "view",
      "type": "function"
    },
    {
      "inputs": [
        {
          "internalType": "uint256",
          "name": "_id",
          "type": "uint256"
        }
      ],
      "name": "refund",
      "outputs": [],
      "stateMutability": "nonpayable",
      "type": "function"
    },
    {
      "inputs": [
        {
          "internalType": "address",
          "name": "sender",
          "type": "address"
        },
        {
          "internalType": "address",
          "name": "recipient",
          "type": "address"
        },
        {
          "internalType": "uint256",
          "name": "amount",
          "type": "uint256"
        }
      ],
      "name": "sendToAddress",
      "outputs": [],
      "stateMutability": "nonpayable",
      "type": "function"
    },
    {
      "inputs": [
        {
          "internalType": "address",
          "name": "recipient",
          "type": "address"
        },
        {
          "internalType": "uint256",
          "name": "amount",
          "type": "uint256"
        }
      ],
      "name": "sendToContract",
      "outputs": [],
      "stateMutability": "nonpayable",
      "type": "function"
    },
    {
      "inputs": [
        {
          "internalType": "uint256",
          "name": "_amount",
          "type": "uint256"
        }
      ],
      "name": "stake",
      "outputs": [],
      "stateMutability": "nonpayable",
      "type": "function"
    },
    {
      "inputs": [],
      "name": "stakerSummart",
      "outputs": [
        {
          "components": [
            {
              "internalType": "address",
              "name": "user",
              "type": "address"
            },
            {
              "components": [
                {
                  "internalType": "address",
                  "name": "user",
                  "type": "address"
                },
                {
                  "internalType": "uint256",
                  "name": "amount",
                  "type": "uint256"
                },
                {
                  "internalType": "uint256",
                  "name": "since",
                  "type": "uint256"
                },
                {
                  "internalType": "uint256",
                  "name": "claimable",
                  "type": "uint256"
                }
              ],
              "internalType": "struct Staking.Stake[]",
              "name": "address_stakes",
              "type": "tuple[]"
            }
          ],
          "internalType": "struct Staking.Stakeholder",
          "name": "",
          "type": "tuple"
        }
      ],
      "stateMutability": "view",
      "type": "function"
    },
    {
      "inputs": [],
      "name": "symbol",
      "outputs": [
        {
          "internalType": "string",
          "name": "",
          "type": "string"
        }
      ],
      "stateMutability": "view",
      "type": "function"
    },
    {
      "inputs": [],
      "name": "token",
      "outputs": [
        {
          "internalType": "contract IERC20",
          "name": "",
          "type": "address"
        }
      ],
      "stateMutability": "view",
      "type": "function"
    },
    {
      "inputs": [],
      "name": "tokenAddress",
      "outputs": [
        {
          "internalType": "address",
          "name": "",
          "type": "address"
        }
      ],
      "stateMutability": "view",
      "type": "function"
    },
    {
      "inputs": [],
      "name": "totalSupply",
      "outputs": [
        {
          "internalType": "uint256",
          "name": "",
          "type": "uint256"
        }
      ],
      "stateMutability": "view",
      "type": "function"
    },
    {
      "inputs": [
        {
          "internalType": "address",
          "name": "recipient",
          "type": "address"
        },
        {
          "internalType": "uint256",
          "name": "amount",
          "type": "uint256"
        }
      ],
      "name": "transfer",
      "outputs": [
        {
          "internalType": "bool",
          "name": "",
          "type": "bool"
        }
      ],
      "stateMutability": "nonpayable",
      "type": "function"
    },
    {
      "inputs": [
        {
          "internalType": "address",
          "name": "sender",
          "type": "address"
        },
        {
          "internalType": "address",
          "name": "recipient",
          "type": "address"
        },
        {
          "internalType": "uint256",
          "name": "amount",
          "type": "uint256"
        }
      ],
      "name": "transferFrom",
      "outputs": [
        {
          "internalType": "bool",
          "name": "",
          "type": "bool"
        }
      ],
      "stateMutability": "nonpayable",
      "type": "function"
    },
    {
      "inputs": [
        {
          "internalType": "uint256",
          "name": "_id",
          "type": "uint256"
        },
        {
          "internalType": "uint256",
          "name": "_amount",
          "type": "uint256"
        }
      ],
      "name": "unpledge",
      "outputs": [],
      "stateMutability": "nonpayable",
      "type": "function"
    },
    {
      "inputs": [
        {
          "internalType": "uint256",
          "name": "_amount",
          "type": "uint256"
        },
        {
          "internalType": "uint256",
          "name": "stake_index",
          "type": "uint256"
        }
      ],
      "name": "withdrawStake",
      "outputs": [],
      "stateMutability": "nonpayable",
      "type": "function"
    },
    {
      "stateMutability": "payable",
      "type": "receive"
    }
  ],
  "bytecode": "0x60c06040526103e86000556040518060400160405280600481526020017f5465737400000000000000000000000000000000000000000000000000000000815250600690805190602001906200005792919062000181565b506040518060400160405280600481526020017f544553540000000000000000000000000000000000000000000000000000000081525060079080519060200190620000a592919062000181565b506012600860006101000a81548160ff021916908360ff160217905550348015620000cf57600080fd5b5060405162004308380380620043088339818101604052810190620000f591906200029b565b60018081600181540180825580915050039060005260206000209050508073ffffffffffffffffffffffffffffffffffffffff1660808173ffffffffffffffffffffffffffffffffffffffff16815250508073ffffffffffffffffffffffffffffffffffffffff1660a08173ffffffffffffffffffffffffffffffffffffffff16815250505062000332565b8280546200018f90620002fc565b90600052602060002090601f016020900481019282620001b35760008555620001ff565b82601f10620001ce57805160ff1916838001178555620001ff565b82800160010185558215620001ff579182015b82811115620001fe578251825591602001919060010190620001e1565b5b5090506200020e919062000212565b5090565b5b808211156200022d57600081600090555060010162000213565b5090565b600080fd5b600073ffffffffffffffffffffffffffffffffffffffff82169050919050565b6000620002638262000236565b9050919050565b620002758162000256565b81146200028157600080fd5b50565b60008151905062000295816200026a565b92915050565b600060208284031215620002b457620002b362000231565b5b6000620002c48482850162000284565b91505092915050565b7f4e487b7100000000000000000000000000000000000000000000000000000000600052602260045260246000fd5b600060028204905060018216806200031557607f821691505b602082108114156200032c576200032b620002cd565b5b50919050565b60805160a051613fa2620003666000396000611b5a015260008181611f270152818161201b01526126040152613fa26000f3fe6080604052600436106101f25760003560e01c806376809ce31161010d578063d3c9cc26116100a0578063f1fdf4691161006f578063f1fdf4691461074e578063fab1e74714610777578063fbd95a39146107a2578063fc0c546a146107cb578063fde327be146107f657610232565b8063d3c9cc261461068f578063dd62ed3e146106ab578063e22f9ea6146106e8578063e73e14bf1461071157610232565b8063a694fc3a116100dc578063a694fc3a146105c3578063a9059cbb146105ec578063aa4fb63a14610629578063c68e45b71461066657610232565b806376809ce31461051957806395d89b41146105445780639d76ea581461056f578063a0712d681461059a57610232565b806336e4392b1161018557806340e58ee51161015457806340e58ee51461046157806342966c681461048a57806370a08231146104b3578063711853ab146104f057610232565b806336e4392b146103c6578063379607f5146103f15780633f733e481461040d5780634051ddac1461044a57610232565b806318160ddd116101c157806318160ddd1461030c57806323b872dd14610337578063278ecde1146103745780632c63f1461461039d57610232565b806306661abd1461023757806306fdde0314610262578063095ea7b31461028d578063141961bc146102ca57610232565b36610232577fbd0faddf87043dd749c1b9d4dca8a12589b8cb5e2106832111ce23f219b14367345a604051610228929190612e95565b60405180910390a1005b600080fd5b34801561024357600080fd5b5061024c610812565b6040516102599190612ebe565b60405180910390f35b34801561026e57600080fd5b50610277610818565b6040516102849190612f72565b60405180910390f35b34801561029957600080fd5b506102b460048036038101906102af9190613023565b6108a6565b6040516102c1919061307e565b60405180910390f35b3480156102d657600080fd5b506102f160048036038101906102ec9190613099565b610998565b604051610303969594939291906130f4565b60405180910390f35b34801561031857600080fd5b50610321610a21565b60405161032e9190612ebe565b60405180910390f35b34801561034357600080fd5b5061035e60048036038101906103599190613155565b610a27565b60405161036b919061307e565b60405180910390f35b34801561038057600080fd5b5061039b60048036038101906103969190613099565b610bd8565b005b3480156103a957600080fd5b506103c460048036038101906103bf91906131d4565b610e41565b005b3480156103d257600080fd5b506103db6110d9565b6040516103e89190613386565b60405180910390f35b61040b60048036038101906104069190613099565b6110ef565b005b34801561041957600080fd5b50610434600480360381019061042f91906133a8565b61139a565b6040516104419190613386565b60405180910390f35b34801561045657600080fd5b5061045f61153e565b005b34801561046d57600080fd5b5061048860048036038101906104839190613099565b611555565b005b34801561049657600080fd5b506104b160048036038101906104ac9190613099565b6117d0565b005b3480156104bf57600080fd5b506104da60048036038101906104d591906133a8565b6118a8565b6040516104e79190612ebe565b60405180910390f35b3480156104fc57600080fd5b50610517600480360381019061051291906133d5565b6118c0565b005b34801561052557600080fd5b5061052e611ab7565b60405161053b9190613431565b60405180910390f35b34801561055057600080fd5b50610559611aca565b6040516105669190612f72565b60405180910390f35b34801561057b57600080fd5b50610584611b58565b604051610591919061344c565b60405180910390f35b3480156105a657600080fd5b506105c160048036038101906105bc9190613099565b611b7c565b005b3480156105cf57600080fd5b506105ea60048036038101906105e59190613099565b611c54565b005b3480156105f857600080fd5b50610613600480360381019061060e9190613023565b611d50565b604051610620919061307e565b60405180910390f35b34801561063557600080fd5b50610650600480360381019061064b9190613467565b611e6d565b60405161065d9190612ebe565b60405180910390f35b34801561067257600080fd5b5061068d60048036038101906106889190613099565b611e92565b005b6106a960048036038101906106a49190613099565b612019565b005b3480156106b757600080fd5b506106d260048036038101906106cd91906134a7565b6120a9565b6040516106df9190612ebe565b60405180910390f35b3480156106f457600080fd5b5061070f600480360381019061070a9190613023565b6120ce565b005b34801561071d57600080fd5b50610738600480360381019061073391906133a8565b612259565b6040516107459190612ebe565b60405180910390f35b34801561075a57600080fd5b50610775600480360381019061077091906133d5565b612464565b005b34801561078357600080fd5b5061078c6124e6565b6040516107999190612ebe565b60405180910390f35b3480156107ae57600080fd5b506107c960048036038101906107c49190613155565b6124ec565b005b3480156107d757600080fd5b506107e0612602565b6040516107ed9190613546565b60405180910390f35b610810600480360381019061080b91906133d5565b612626565b005b600a5481565b6006805461082590613590565b80601f016020809104026020016040519081016040528092919081815260200182805461085190613590565b801561089e5780601f106108735761010080835404028352916020019161089e565b820191906000526020600020905b81548152906001019060200180831161088157829003601f168201915b505050505081565b600081600560003373ffffffffffffffffffffffffffffffffffffffff1673ffffffffffffffffffffffffffffffffffffffff16815260200190815260200160002060008573ffffffffffffffffffffffffffffffffffffffff1673ffffffffffffffffffffffffffffffffffffffff168152602001908152602001600020819055508273ffffffffffffffffffffffffffffffffffffffff163373ffffffffffffffffffffffffffffffffffffffff167f8c5be1e5ebec7d5bd14f71427d1e84f3dd0314c0f7b2291e5b200ac8c7c3b925846040516109869190612ebe565b60405180910390a36001905092915050565b600b6020528060005260406000206000915090508060000160009054906101000a900473ffffffffffffffffffffffffffffffffffffffff16908060010154908060020154908060030160009054906101000a900463ffffffff16908060030160049054906101000a900463ffffffff16908060030160089054906101000a900460ff16905086565b60035481565b600081600560008673ffffffffffffffffffffffffffffffffffffffff1673ffffffffffffffffffffffffffffffffffffffff16815260200190815260200160002060003373ffffffffffffffffffffffffffffffffffffffff1673ffffffffffffffffffffffffffffffffffffffff1681526020019081526020016000206000828254610ab591906135f1565b9250508190555081600460008673ffffffffffffffffffffffffffffffffffffffff1673ffffffffffffffffffffffffffffffffffffffff1681526020019081526020016000206000828254610b0b91906135f1565b9250508190555081600460008573ffffffffffffffffffffffffffffffffffffffff1673ffffffffffffffffffffffffffffffffffffffff1681526020019081526020016000206000828254610b619190613625565b925050819055508273ffffffffffffffffffffffffffffffffffffffff168473ffffffffffffffffffffffffffffffffffffffff167fddf252ad1be2c89b69c2b068fc378daa952ba7f163c4a11628f55a4df523b3ef84604051610bc59190612ebe565b60405180910390a3600190509392505050565b6000600b600083815260200190815260200160002090508060030160049054906101000a900463ffffffff1663ffffffff164211610c4b576040517f08c379a0000000000000000000000000000000000000000000000000000000008152600401610c42906136c7565b60405180910390fd5b8060010154816002015410610c95576040517f08c379a0000000000000000000000000000000000000000000000000000000008152600401610c8c90613733565b60405180910390fd5b6000600c600084815260200190815260200160002060003373ffffffffffffffffffffffffffffffffffffffff1673ffffffffffffffffffffffffffffffffffffffff16815260200190815260200160002054905060003373ffffffffffffffffffffffffffffffffffffffff1682604051610d1090613784565b60006040518083038185875af1925050503d8060008114610d4d576040519150601f19603f3d011682016040523d82523d6000602084013e610d52565b606091505b5050905080610d96576040517f08c379a0000000000000000000000000000000000000000000000000000000008152600401610d8d906137e5565b60405180910390fd5b6000600c600086815260200190815260200160002060003373ffffffffffffffffffffffffffffffffffffffff1673ffffffffffffffffffffffffffffffffffffffff168152602001908152602001600020819055503373ffffffffffffffffffffffffffffffffffffffff16847f21e12a7cad0da5928167e1084ea4d5fdf8d9af66657a2543a9ac76a0ca08147784604051610e339190612ebe565b60405180910390a350505050565b428263ffffffff161015610e8a576040517f08c379a0000000000000000000000000000000000000000000000000000000008152600401610e8190613851565b60405180910390fd5b8163ffffffff168163ffffffff161015610ed9576040517f08c379a0000000000000000000000000000000000000000000000000000000008152600401610ed0906138bd565b60405180910390fd5b6276a70042610ee89190613625565b8163ffffffff161115610f30576040517f08c379a0000000000000000000000000000000000000000000000000000000008152600401610f2790613929565b60405180910390fd5b6001600a6000828254610f439190613625565b925050819055506040518060c001604052803373ffffffffffffffffffffffffffffffffffffffff168152602001848152602001600081526020018363ffffffff1681526020018263ffffffff16815260200160001515815250600b6000600a54815260200190815260200160002060008201518160000160006101000a81548173ffffffffffffffffffffffffffffffffffffffff021916908373ffffffffffffffffffffffffffffffffffffffff160217905550602082015181600101556040820151816002015560608201518160030160006101000a81548163ffffffff021916908363ffffffff16021790555060808201518160030160046101000a81548163ffffffff021916908363ffffffff16021790555060a08201518160030160086101000a81548160ff0219169083151502179055509050503373ffffffffffffffffffffffffffffffffffffffff167f0601cd0d650b473037e838a2696d41e654433d065b3f56b28d1d3302e44a304f600a548585856040516110cc9493929190613949565b60405180910390a2505050565b6110e1612e4c565b6110ea3361139a565b905090565b6000600b600083815260200190815260200160002090508060000160009054906101000a900473ffffffffffffffffffffffffffffffffffffffff1673ffffffffffffffffffffffffffffffffffffffff163373ffffffffffffffffffffffffffffffffffffffff1614611198576040517f08c379a000000000000000000000000000000000000000000000000000000000815260040161118f906139da565b60405180910390fd5b8060030160049054906101000a900463ffffffff1663ffffffff1642116111f4576040517f08c379a00000000000000000000000000000000000000000000000000000000081526004016111eb906136c7565b60405180910390fd5b80600101548160020154101561123f576040517f08c379a000000000000000000000000000000000000000000000000000000000815260040161123690613a46565b60405180910390fd5b8060030160089054906101000a900460ff1615611291576040517f08c379a000000000000000000000000000000000000000000000000000000000815260040161128890613ab2565b60405180910390fd5b60003373ffffffffffffffffffffffffffffffffffffffff1682600201546040516112bb90613784565b60006040518083038185875af1925050503d80600081146112f8576040519150601f19603f3d011682016040523d82523d6000602084013e6112fd565b606091505b5050905080611341576040517f08c379a0000000000000000000000000000000000000000000000000000000008152600401611338906137e5565b60405180910390fd5b60018260030160086101000a81548160ff0219169083151502179055507f7bb2b3c10797baccb6f8c4791f1edd6ca2f0d028ee0eda64b01a9a57e3a653f78360405161138d9190612ebe565b60405180910390a1505050565b6113a2612e4c565b6001600260008473ffffffffffffffffffffffffffffffffffffffff1673ffffffffffffffffffffffffffffffffffffffff16815260200190815260200160002054815481106113f5576113f4613ad2565b5b90600052602060002090600202016040518060400160405290816000820160009054906101000a900473ffffffffffffffffffffffffffffffffffffffff1673ffffffffffffffffffffffffffffffffffffffff1673ffffffffffffffffffffffffffffffffffffffff16815260200160018201805480602002602001604051908101604052809291908181526020016000905b8282101561152f57838290600052602060002090600402016040518060800160405290816000820160009054906101000a900473ffffffffffffffffffffffffffffffffffffffff1673ffffffffffffffffffffffffffffffffffffffff1673ffffffffffffffffffffffffffffffffffffffff168152602001600182015481526020016002820154815260200160038201548152505081526020019060010190611489565b50505050815250509050919050565b600061154933612259565b90508060098190555050565b6000600b60008381526020019081526020016000206040518060c00160405290816000820160009054906101000a900473ffffffffffffffffffffffffffffffffffffffff1673ffffffffffffffffffffffffffffffffffffffff1673ffffffffffffffffffffffffffffffffffffffff16815260200160018201548152602001600282015481526020016003820160009054906101000a900463ffffffff1663ffffffff1663ffffffff1681526020016003820160049054906101000a900463ffffffff1663ffffffff1663ffffffff1681526020016003820160089054906101000a900460ff1615151515815250509050806000015173ffffffffffffffffffffffffffffffffffffffff163373ffffffffffffffffffffffffffffffffffffffff16146116ba576040517f08c379a00000000000000000000000000000000000000000000000000000000081526004016116b1906139da565b60405180910390fd5b806060015163ffffffff164210611706576040517f08c379a00000000000000000000000000000000000000000000000000000000081526004016116fd90613b4d565b60405180910390fd5b600b6000838152602001908152602001600020600080820160006101000a81549073ffffffffffffffffffffffffffffffffffffffff0219169055600182016000905560028201600090556003820160006101000a81549063ffffffff02191690556003820160046101000a81549063ffffffff02191690556003820160086101000a81549060ff021916905550507f8bf30e7ff26833413be5f69e1d373744864d600b664204b4a2f9844a8eedb9ed826040516117c49190612ebe565b60405180910390a15050565b80600460003373ffffffffffffffffffffffffffffffffffffffff1673ffffffffffffffffffffffffffffffffffffffff168152602001908152602001600020600082825461181f91906135f1565b92505081905550806003600082825461183891906135f1565b92505081905550600073ffffffffffffffffffffffffffffffffffffffff163373ffffffffffffffffffffffffffffffffffffffff167fddf252ad1be2c89b69c2b068fc378daa952ba7f163c4a11628f55a4df523b3ef8360405161189d9190612ebe565b60405180910390a350565b60046020528060005260406000206000915090505481565b6000600b600084815260200190815260200160002090508060030160049054906101000a900463ffffffff1663ffffffff16421115611934576040517f08c379a000000000000000000000000000000000000000000000000000000000815260040161192b90613bb9565b60405180910390fd5b60003373ffffffffffffffffffffffffffffffffffffffff168360405161195a90613784565b60006040518083038185875af1925050503d8060008114611997576040519150601f19603f3d011682016040523d82523d6000602084013e61199c565b606091505b50509050806119e0576040517f08c379a00000000000000000000000000000000000000000000000000000000081526004016119d7906137e5565b60405180910390fd5b828260020160008282546119f491906135f1565b9250508190555082600c600086815260200190815260200160002060003373ffffffffffffffffffffffffffffffffffffffff1673ffffffffffffffffffffffffffffffffffffffff1681526020019081526020016000206000828254611a5b91906135f1565b925050819055503373ffffffffffffffffffffffffffffffffffffffff16847f2eeeab891b26a214d1b25749f88a406bdea852bd8c9bfda977e0ef8114c180ba85604051611aa99190612ebe565b60405180910390a350505050565b600860009054906101000a900460ff1681565b60078054611ad790613590565b80601f0160208091040260200160405190810160405280929190818152602001828054611b0390613590565b8015611b505780601f10611b2557610100808354040283529160200191611b50565b820191906000526020600020905b815481529060010190602001808311611b3357829003601f168201915b505050505081565b7f000000000000000000000000000000000000000000000000000000000000000081565b80600460003073ffffffffffffffffffffffffffffffffffffffff1673ffffffffffffffffffffffffffffffffffffffff1681526020019081526020016000206000828254611bcb9190613625565b925050819055508060036000828254611be49190613625565b925050819055503073ffffffffffffffffffffffffffffffffffffffff16600073ffffffffffffffffffffffffffffffffffffffff167fddf252ad1be2c89b69c2b068fc378daa952ba7f163c4a11628f55a4df523b3ef83604051611c499190612ebe565b60405180910390a350565b600460003373ffffffffffffffffffffffffffffffffffffffff1673ffffffffffffffffffffffffffffffffffffffff168152602001908152602001600020548110611cd5576040517f08c379a0000000000000000000000000000000000000000000000000000000008152600401611ccc90613c25565b60405180910390fd5b611cde81612879565b80600460003373ffffffffffffffffffffffffffffffffffffffff1673ffffffffffffffffffffffffffffffffffffffff1681526020019081526020016000206000828254611d2d91906135f1565b925050819055508060036000828254611d4691906135f1565b9250508190555050565b600081600460003373ffffffffffffffffffffffffffffffffffffffff1673ffffffffffffffffffffffffffffffffffffffff1681526020019081526020016000206000828254611da191906135f1565b9250508190555081600460008573ffffffffffffffffffffffffffffffffffffffff1673ffffffffffffffffffffffffffffffffffffffff1681526020019081526020016000206000828254611df79190613625565b925050819055508273ffffffffffffffffffffffffffffffffffffffff163373ffffffffffffffffffffffffffffffffffffffff167fddf252ad1be2c89b69c2b068fc378daa952ba7f163c4a11628f55a4df523b3ef84604051611e5b9190612ebe565b60405180910390a36001905092915050565b600c602052816000526040600020602052806000526040600020600091509150505481565b6000600c600083815260200190815260200160002060003373ffffffffffffffffffffffffffffffffffffffff1673ffffffffffffffffffffffffffffffffffffffff1681526020019081526020016000205411611f25576040517f08c379a0000000000000000000000000000000000000000000000000000000008152600401611f1c90613c91565b60405180910390fd5b7f000000000000000000000000000000000000000000000000000000000000000073ffffffffffffffffffffffffffffffffffffffff1663fbd95a393033662386f26fc10000600c600087815260200190815260200160002060003373ffffffffffffffffffffffffffffffffffffffff1673ffffffffffffffffffffffffffffffffffffffff16815260200190815260200160002054611fc69190613ce0565b6040518463ffffffff1660e01b8152600401611fe493929190613d11565b600060405180830381600087803b158015611ffe57600080fd5b505af1158015612012573d6000803e3d6000fd5b5050505050565b7f000000000000000000000000000000000000000000000000000000000000000073ffffffffffffffffffffffffffffffffffffffff1663e22f9ea630836040518363ffffffff1660e01b8152600401612074929190613d48565b600060405180830381600087803b15801561208e57600080fd5b505af11580156120a2573d6000803e3d6000fd5b5050505050565b6005602052816000526040600020602052806000526040600020600091509150505481565b7f909c57d5c6ac08245cf2a6de3900e2b868513fa59099b92b27d8db823d92df9c600460003073ffffffffffffffffffffffffffffffffffffffff1673ffffffffffffffffffffffffffffffffffffffff1681526020019081526020016000205460405161213c9190612ebe565b60405180910390a180600460003073ffffffffffffffffffffffffffffffffffffffff1673ffffffffffffffffffffffffffffffffffffffff168152602001908152602001600020600082825461219391906135f1565b9250508190555080600460008473ffffffffffffffffffffffffffffffffffffffff1673ffffffffffffffffffffffffffffffffffffffff16815260200190815260200160002060008282546121e99190613625565b925050819055508173ffffffffffffffffffffffffffffffffffffffff163073ffffffffffffffffffffffffffffffffffffffff167fddf252ad1be2c89b69c2b068fc378daa952ba7f163c4a11628f55a4df523b3ef8360405161224d9190612ebe565b60405180910390a35050565b60008060006040518060400160405280600081526020016001600260008873ffffffffffffffffffffffffffffffffffffffff1673ffffffffffffffffffffffffffffffffffffffff16815260200190815260200160002054815481106122c3576122c2613ad2565b5b9060005260206000209060020201600101805480602002602001604051908101604052809291908181526020016000905b8282101561239a57838290600052602060002090600402016040518060800160405290816000820160009054906101000a900473ffffffffffffffffffffffffffffffffffffffff1673ffffffffffffffffffffffffffffffffffffffff1673ffffffffffffffffffffffffffffffffffffffff1681526020016001820154815260200160028201548152602001600382015481525050815260200190600101906122f4565b50505050815250905060005b81602001515181101561244b5760006123dc836020015183815181106123cf576123ce613ad2565b5b6020026020010151612a5e565b905080836020015183815181106123f6576123f5613ad2565b5b602002602001015160600181815250508260200151828151811061241d5761241c613ad2565b5b602002602001015160600151846124349190613625565b9350506001816124449190613625565b90506123a6565b5081816000018181525050806000015192505050919050565b60006124708383612a9e565b905080600460003373ffffffffffffffffffffffffffffffffffffffff1673ffffffffffffffffffffffffffffffffffffffff16815260200190815260200160002060008282546124c19190613625565b9250508190555080600360008282546124da9190613625565b92505081905550505050565b60095481565b80600460008573ffffffffffffffffffffffffffffffffffffffff1673ffffffffffffffffffffffffffffffffffffffff168152602001908152602001600020600082825461253b91906135f1565b9250508190555080600460008473ffffffffffffffffffffffffffffffffffffffff1673ffffffffffffffffffffffffffffffffffffffff16815260200190815260200160002060008282546125919190613625565b925050819055508173ffffffffffffffffffffffffffffffffffffffff168373ffffffffffffffffffffffffffffffffffffffff167fddf252ad1be2c89b69c2b068fc378daa952ba7f163c4a11628f55a4df523b3ef836040516125f59190612ebe565b60405180910390a3505050565b7f000000000000000000000000000000000000000000000000000000000000000081565b6000600b600084815260200190815260200160002090508060030160009054906101000a900463ffffffff1663ffffffff164211612699576040517f08c379a000000000000000000000000000000000000000000000000000000000815260040161269090613dbd565b60405180910390fd5b8060030160049054906101000a900463ffffffff1663ffffffff164211156126f6576040517f08c379a00000000000000000000000000000000000000000000000000000000081526004016126ed90613bb9565b60405180910390fd5b60003073ffffffffffffffffffffffffffffffffffffffff168360405161271c90613784565b60006040518083038185875af1925050503d8060008114612759576040519150601f19603f3d011682016040523d82523d6000602084013e61275e565b606091505b50509050806127a2576040517f08c379a0000000000000000000000000000000000000000000000000000000008152600401612799906137e5565b60405180910390fd5b828260020160008282546127b69190613625565b9250508190555082600c600086815260200190815260200160002060003373ffffffffffffffffffffffffffffffffffffffff1673ffffffffffffffffffffffffffffffffffffffff168152602001908152602001600020600082825461281d9190613625565b925050819055503373ffffffffffffffffffffffffffffffffffffffff16847f06bdb975df800a73232998e71ed585d536222f1dfeaa622d7f62a23ada686c828560405161286b9190612ebe565b60405180910390a350505050565b600081116128bc576040517f08c379a00000000000000000000000000000000000000000000000000000000081526004016128b390613e29565b60405180910390fd5b6000600260003373ffffffffffffffffffffffffffffffffffffffff1673ffffffffffffffffffffffffffffffffffffffff1681526020019081526020016000205490506000429050600082141561291a5761291733612d67565b91505b6001828154811061292e5761292d613ad2565b5b906000526020600020906002020160010160405180608001604052803373ffffffffffffffffffffffffffffffffffffffff1681526020018581526020018381526020016000815250908060018154018082558091505060019003906000526020600020906004020160009091909190915060008201518160000160006101000a81548173ffffffffffffffffffffffffffffffffffffffff021916908373ffffffffffffffffffffffffffffffffffffffff16021790555060208201518160010155604082015181600201556060820151816003015550503373ffffffffffffffffffffffffffffffffffffffff167fb4caaf29adda3eefee3ad552a8e85058589bf834c7466cae4ee58787f70589ed848484604051612a5193929190613e49565b60405180910390a2505050565b600080548260200151603c846040015142612a7991906135f1565b612a839190613ce0565b612a8d9190613e80565b612a979190613ce0565b9050919050565b600080600260003373ffffffffffffffffffffffffffffffffffffffff1673ffffffffffffffffffffffffffffffffffffffff168152602001908152602001600020549050600060018281548110612af957612af8613ad2565b5b90600052602060002090600202016001018481548110612b1c57612b1b613ad2565b5b90600052602060002090600402016040518060800160405290816000820160009054906101000a900473ffffffffffffffffffffffffffffffffffffffff1673ffffffffffffffffffffffffffffffffffffffff1673ffffffffffffffffffffffffffffffffffffffff168152602001600182015481526020016002820154815260200160038201548152505090508481602001511015612bf2576040517f08c379a0000000000000000000000000000000000000000000000000000000008152600401612be990613f4c565b60405180910390fd5b6000612bfd82612a5e565b9050858260200151612c0f91906135f1565b826020018181525050600082602001511415612cb15760018381548110612c3957612c38613ad2565b5b90600052602060002090600202016001018581548110612c5c57612c5b613ad2565b5b9060005260206000209060040201600080820160006101000a81549073ffffffffffffffffffffffffffffffffffffffff02191690556001820160009055600282016000905560038201600090555050612d50565b816020015160018481548110612cca57612cc9613ad2565b5b90600052602060002090600202016001018681548110612ced57612cec613ad2565b5b9060005260206000209060040201600101819055504260018481548110612d1757612d16613ad2565b5b90600052602060002090600202016001018681548110612d3a57612d39613ad2565b5b9060005260206000209060040201600201819055505b8086612d5c9190613625565b935050505092915050565b60006001808160018154018082558091505003906000526020600020905050600060018080549050612d9991906135f1565b90508260018281548110612db057612daf613ad2565b5b906000526020600020906002020160000160006101000a81548173ffffffffffffffffffffffffffffffffffffffff021916908373ffffffffffffffffffffffffffffffffffffffff16021790555080600260008573ffffffffffffffffffffffffffffffffffffffff1673ffffffffffffffffffffffffffffffffffffffff1681526020019081526020016000208190555080915050919050565b6040518060400160405280600073ffffffffffffffffffffffffffffffffffffffff168152602001606081525090565b6000819050919050565b612e8f81612e7c565b82525050565b6000604082019050612eaa6000830185612e86565b612eb76020830184612e86565b9392505050565b6000602082019050612ed36000830184612e86565b92915050565b600081519050919050565b600082825260208201905092915050565b60005b83811015612f13578082015181840152602081019050612ef8565b83811115612f22576000848401525b50505050565b6000601f19601f8301169050919050565b6000612f4482612ed9565b612f4e8185612ee4565b9350612f5e818560208601612ef5565b612f6781612f28565b840191505092915050565b60006020820190508181036000830152612f8c8184612f39565b905092915050565b600080fd5b600073ffffffffffffffffffffffffffffffffffffffff82169050919050565b6000612fc482612f99565b9050919050565b612fd481612fb9565b8114612fdf57600080fd5b50565b600081359050612ff181612fcb565b92915050565b61300081612e7c565b811461300b57600080fd5b50565b60008135905061301d81612ff7565b92915050565b6000806040838503121561303a57613039612f94565b5b600061304885828601612fe2565b92505060206130598582860161300e565b9150509250929050565b60008115159050919050565b61307881613063565b82525050565b6000602082019050613093600083018461306f565b92915050565b6000602082840312156130af576130ae612f94565b5b60006130bd8482850161300e565b91505092915050565b6130cf81612fb9565b82525050565b600063ffffffff82169050919050565b6130ee816130d5565b82525050565b600060c08201905061310960008301896130c6565b6131166020830188612e86565b6131236040830187612e86565b61313060608301866130e5565b61313d60808301856130e5565b61314a60a083018461306f565b979650505050505050565b60008060006060848603121561316e5761316d612f94565b5b600061317c86828701612fe2565b935050602061318d86828701612fe2565b925050604061319e8682870161300e565b9150509250925092565b6131b1816130d5565b81146131bc57600080fd5b50565b6000813590506131ce816131a8565b92915050565b6000806000606084860312156131ed576131ec612f94565b5b60006131fb8682870161300e565b935050602061320c868287016131bf565b925050604061321d868287016131bf565b9150509250925092565b61323081612fb9565b82525050565b600081519050919050565b600082825260208201905092915050565b6000819050602082019050919050565b61326b81612e7c565b82525050565b6080820160008201516132876000850182613227565b50602082015161329a6020850182613262565b5060408201516132ad6040850182613262565b5060608201516132c06060850182613262565b50505050565b60006132d28383613271565b60808301905092915050565b6000602082019050919050565b60006132f682613236565b6133008185613241565b935061330b83613252565b8060005b8381101561333c57815161332388826132c6565b975061332e836132de565b92505060018101905061330f565b5085935050505092915050565b60006040830160008301516133616000860182613227565b506020830151848203602086015261337982826132eb565b9150508091505092915050565b600060208201905081810360008301526133a08184613349565b905092915050565b6000602082840312156133be576133bd612f94565b5b60006133cc84828501612fe2565b91505092915050565b600080604083850312156133ec576133eb612f94565b5b60006133fa8582860161300e565b925050602061340b8582860161300e565b9150509250929050565b600060ff82169050919050565b61342b81613415565b82525050565b60006020820190506134466000830184613422565b92915050565b600060208201905061346160008301846130c6565b92915050565b6000806040838503121561347e5761347d612f94565b5b600061348c8582860161300e565b925050602061349d85828601612fe2565b9150509250929050565b600080604083850312156134be576134bd612f94565b5b60006134cc85828601612fe2565b92505060206134dd85828601612fe2565b9150509250929050565b6000819050919050565b600061350c61350761350284612f99565b6134e7565b612f99565b9050919050565b600061351e826134f1565b9050919050565b600061353082613513565b9050919050565b61354081613525565b82525050565b600060208201905061355b6000830184613537565b92915050565b7f4e487b7100000000000000000000000000000000000000000000000000000000600052602260045260246000fd5b600060028204905060018216806135a857607f821691505b602082108114156135bc576135bb613561565b5b50919050565b7f4e487b7100000000000000000000000000000000000000000000000000000000600052601160045260246000fd5b60006135fc82612e7c565b915061360783612e7c565b92508282101561361a576136196135c2565b5b828203905092915050565b600061363082612e7c565b915061363b83612e7c565b9250827fffffffffffffffffffffffffffffffffffffffffffffffffffffffffffffffff038211156136705761366f6135c2565b5b828201905092915050565b7f4e6f7420656e6465640000000000000000000000000000000000000000000000600082015250565b60006136b1600983612ee4565b91506136bc8261367b565b602082019050919050565b600060208201905081810360008301526136e0816136a4565b9050919050565b7f706c6564676564203c20676f616c000000000000000000000000000000000000600082015250565b600061371d600e83612ee4565b9150613728826136e7565b602082019050919050565b6000602082019050818103600083015261374c81613710565b9050919050565b600081905092915050565b50565b600061376e600083613753565b91506137798261375e565b600082019050919050565b600061378f82613761565b9150819050919050565b7f43616c6c206661696c6564000000000000000000000000000000000000000000600082015250565b60006137cf600b83612ee4565b91506137da82613799565b602082019050919050565b600060208201905081810360008301526137fe816137c2565b9050919050565b7f5374617274206174203c206e6f77000000000000000000000000000000000000600082015250565b600061383b600e83612ee4565b915061384682613805565b602082019050919050565b6000602082019050818103600083015261386a8161382e565b9050919050565b7f656e64206174203c207374617274206174000000000000000000000000000000600082015250565b60006138a7601183612ee4565b91506138b282613871565b602082019050919050565b600060208201905081810360008301526138d68161389a565b9050919050565b7f656e64206174203e206d6178206475726174696f6e0000000000000000000000600082015250565b6000613913601583612ee4565b915061391e826138dd565b602082019050919050565b6000602082019050818103600083015261394281613906565b9050919050565b600060808201905061395e6000830187612e86565b61396b6020830186612e86565b61397860408301856130e5565b61398560608301846130e5565b95945050505050565b7f4e6f742063726561746f72000000000000000000000000000000000000000000600082015250565b60006139c4600b83612ee4565b91506139cf8261398e565b602082019050919050565b600060208201905081810360008301526139f3816139b7565b9050919050565b7f706c65646765203c20676f616c00000000000000000000000000000000000000600082015250565b6000613a30600d83612ee4565b9150613a3b826139fa565b602082019050919050565b60006020820190508181036000830152613a5f81613a23565b9050919050565b7f436c61696d656400000000000000000000000000000000000000000000000000600082015250565b6000613a9c600783612ee4565b9150613aa782613a66565b602082019050919050565b60006020820190508181036000830152613acb81613a8f565b9050919050565b7f4e487b7100000000000000000000000000000000000000000000000000000000600052603260045260246000fd5b7f7374617274656400000000000000000000000000000000000000000000000000600082015250565b6000613b37600783612ee4565b9150613b4282613b01565b602082019050919050565b60006020820190508181036000830152613b6681613b2a565b9050919050565b7f456e646564000000000000000000000000000000000000000000000000000000600082015250565b6000613ba3600583612ee4565b9150613bae82613b6d565b602082019050919050565b60006020820190508181036000830152613bd281613b96565b9050919050565b7f4e6f7420656e6f75676820746f6b656e73000000000000000000000000000000600082015250565b6000613c0f601183612ee4565b9150613c1a82613bd9565b602082019050919050565b60006020820190508181036000830152613c3e81613c02565b9050919050565b7f4e6f7468696e6720706c65646765640000000000000000000000000000000000600082015250565b6000613c7b600f83612ee4565b9150613c8682613c45565b602082019050919050565b60006020820190508181036000830152613caa81613c6e565b9050919050565b7f4e487b7100000000000000000000000000000000000000000000000000000000600052601260045260246000fd5b6000613ceb82612e7c565b9150613cf683612e7c565b925082613d0657613d05613cb1565b5b828204905092915050565b6000606082019050613d2660008301866130c6565b613d3360208301856130c6565b613d406040830184612e86565b949350505050565b6000604082019050613d5d60008301856130c6565b613d6a6020830184612e86565b9392505050565b7f4e6f742073746172746564000000000000000000000000000000000000000000600082015250565b6000613da7600b83612ee4565b9150613db282613d71565b602082019050919050565b60006020820190508181036000830152613dd681613d9a565b9050919050565b7f43616e6e6f74207374616b65206e6f7468696e67000000000000000000000000600082015250565b6000613e13601483612ee4565b9150613e1e82613ddd565b602082019050919050565b60006020820190508181036000830152613e4281613e06565b9050919050565b6000606082019050613e5e6000830186612e86565b613e6b6020830185612e86565b613e786040830184612e86565b949350505050565b6000613e8b82612e7c565b9150613e9683612e7c565b9250817fffffffffffffffffffffffffffffffffffffffffffffffffffffffffffffffff0483118215151615613ecf57613ece6135c2565b5b828202905092915050565b7f5374616b696e673a2043616e6e6f74207769746864726177206d6f726520746860008201527f616e20796f752068617665207374616b65640000000000000000000000000000602082015250565b6000613f36603283612ee4565b9150613f4182613eda565b604082019050919050565b60006020820190508181036000830152613f6581613f29565b905091905056fea26469706673582212201fe709f0878bc64a89ea0801e7f01c3068ade8c45381f3591084c19f404fe1d264736f6c634300080a0033",
  "linkReferences": {},
  "deployedLinkReferences": {}
}