{
  "_format": "hh-sol-artifact-1",
  "contractName": "Staking",
  "sourceName": "contracts/Staking.sol",
  "abi": [
    {
      "inputs": [],
      "stateMutability": "nonpayable",
      "type": "constructor"
    },
    {
      "anonymous": false,
      "inputs": [
        {
          "indexed": true,
          "internalType": "address",
          "name": "user",
          "type": "address"
        },
        {
          "indexed": false,
          "internalType": "uint256",
          "name": "amount",
          "type": "uint256"
        },
        {
          "indexed": false,
          "internalType": "uint256",
          "name": "index",
          "type": "uint256"
        },
        {
          "indexed": false,
          "internalType": "uint256",
          "name": "timestamp",
          "type": "uint256"
        }
      ],
      "name": "Staked",
      "type": "event"
    },
    {
      "inputs": [
        {
          "internalType": "address",
          "name": "_staker",
          "type": "address"
        }
      ],
      "name": "getSummary",
      "outputs": [
        {
          "components": [
            {
              "internalType": "address",
              "name": "user",
              "type": "address"
            },
            {
              "components": [
                {
                  "internalType": "address",
                  "name": "user",
                  "type": "address"
                },
                {
                  "internalType": "uint256",
                  "name": "amount",
                  "type": "uint256"
                },
                {
                  "internalType": "uint256",
                  "name": "since",
                  "type": "uint256"
                },
                {
                  "internalType": "uint256",
                  "name": "claimable",
                  "type": "uint256"
                }
              ],
              "internalType": "struct Staking.Stake[]",
              "name": "address_stakes",
              "type": "tuple[]"
            }
          ],
          "internalType": "struct Staking.Stakeholder",
          "name": "",
          "type": "tuple"
        }
      ],
      "stateMutability": "view",
      "type": "function"
    },
    {
      "inputs": [
        {
          "internalType": "address",
          "name": "_staker",
          "type": "address"
        }
      ],
      "name": "hasStake",
      "outputs": [
        {
          "internalType": "uint256",
          "name": "",
          "type": "uint256"
        }
      ],
      "stateMutability": "view",
      "type": "function"
    }
  ],
  "bytecode": "0x60806040526103e860005534801561001657600080fd5b5060018081600181540180825580915050039060005260206000209050506108d7806100436000396000f3fe608060405234801561001057600080fd5b50600436106100365760003560e01c80633f733e481461003b578063e73e14bf1461006b575b600080fd5b6100556004803603810190610050919061051d565b61009b565b60405161006291906106b3565b60405180910390f35b6100856004803603810190610080919061051d565b61023f565b60405161009291906106e4565b60405180910390f35b6100a361048a565b6001600260008473ffffffffffffffffffffffffffffffffffffffff1673ffffffffffffffffffffffffffffffffffffffff16815260200190815260200160002054815481106100f6576100f56106ff565b5b90600052602060002090600202016040518060400160405290816000820160009054906101000a900473ffffffffffffffffffffffffffffffffffffffff1673ffffffffffffffffffffffffffffffffffffffff1673ffffffffffffffffffffffffffffffffffffffff16815260200160018201805480602002602001604051908101604052809291908181526020016000905b8282101561023057838290600052602060002090600402016040518060800160405290816000820160009054906101000a900473ffffffffffffffffffffffffffffffffffffffff1673ffffffffffffffffffffffffffffffffffffffff1673ffffffffffffffffffffffffffffffffffffffff16815260200160018201548152602001600282015481526020016003820154815250508152602001906001019061018a565b50505050815250509050919050565b60008060006040518060400160405280600081526020016001600260008873ffffffffffffffffffffffffffffffffffffffff1673ffffffffffffffffffffffffffffffffffffffff16815260200190815260200160002054815481106102a9576102a86106ff565b5b9060005260206000209060020201600101805480602002602001604051908101604052809291908181526020016000905b8282101561038057838290600052602060002090600402016040518060800160405290816000820160009054906101000a900473ffffffffffffffffffffffffffffffffffffffff1673ffffffffffffffffffffffffffffffffffffffff1673ffffffffffffffffffffffffffffffffffffffff1681526020016001820154815260200160028201548152602001600382015481525050815260200190600101906102da565b50505050815250905060005b8160200151518110156104315760006103c2836020015183815181106103b5576103b46106ff565b5b602002602001015161044a565b905080836020015183815181106103dc576103db6106ff565b5b6020026020010151606001818152505082602001518281518110610403576104026106ff565b5b6020026020010151606001518461041a919061075d565b93505060018161042a919061075d565b905061038c565b5081816000018181525050806000015192505050919050565b600080548260200151603c84604001514261046591906107b3565b61046f9190610816565b6104799190610847565b6104839190610816565b9050919050565b6040518060400160405280600073ffffffffffffffffffffffffffffffffffffffff168152602001606081525090565b600080fd5b600073ffffffffffffffffffffffffffffffffffffffff82169050919050565b60006104ea826104bf565b9050919050565b6104fa816104df565b811461050557600080fd5b50565b600081359050610517816104f1565b92915050565b600060208284031215610533576105326104ba565b5b600061054184828501610508565b91505092915050565b610553816104df565b82525050565b600081519050919050565b600082825260208201905092915050565b6000819050602082019050919050565b6000819050919050565b61059881610585565b82525050565b6080820160008201516105b4600085018261054a565b5060208201516105c7602085018261058f565b5060408201516105da604085018261058f565b5060608201516105ed606085018261058f565b50505050565b60006105ff838361059e565b60808301905092915050565b6000602082019050919050565b600061062382610559565b61062d8185610564565b935061063883610575565b8060005b8381101561066957815161065088826105f3565b975061065b8361060b565b92505060018101905061063c565b5085935050505092915050565b600060408301600083015161068e600086018261054a565b50602083015184820360208601526106a68282610618565b9150508091505092915050565b600060208201905081810360008301526106cd8184610676565b905092915050565b6106de81610585565b82525050565b60006020820190506106f960008301846106d5565b92915050565b7f4e487b7100000000000000000000000000000000000000000000000000000000600052603260045260246000fd5b7f4e487b7100000000000000000000000000000000000000000000000000000000600052601160045260246000fd5b600061076882610585565b915061077383610585565b9250827fffffffffffffffffffffffffffffffffffffffffffffffffffffffffffffffff038211156107a8576107a761072e565b5b828201905092915050565b60006107be82610585565b91506107c983610585565b9250828210156107dc576107db61072e565b5b828203905092915050565b7f4e487b7100000000000000000000000000000000000000000000000000000000600052601260045260246000fd5b600061082182610585565b915061082c83610585565b92508261083c5761083b6107e7565b5b828204905092915050565b600061085282610585565b915061085d83610585565b9250817fffffffffffffffffffffffffffffffffffffffffffffffffffffffffffffffff04831182151516156108965761089561072e565b5b82820290509291505056fea2646970667358221220eaea6cfa26408b1b2b3ce3c10452ed3de22679b91cd45eb255cd25e6caf20a5364736f6c634300080a0033",
  "linkReferences": {},
  "deployedLinkReferences": {}
}